:020000040001F9
:10F00000D050002015F201001DF201001FF2010096
:10F0100021F2010023F2010025F2010000000000AE
:10F0200000000000000000000000000027F20100C6
:10F0300029F20100000000002BF201002DF2010076
:10F04000B5F501002FF20100F5F90100A1F601006C
:10F050002FF201002FF20100B1F301002FF20100A5
:10F060002FF201002FF201002FF201002FF2010018
:10F070002FF201002FF201002FF201002FF2010008
:10F080002FF201000DF601002FF201002FF2010016
:10F09000B1F601002FF20100B5F601002FF20100D8
:10F0A0002FF201002FF201002FF201002FF20100D8
:10F0B0002FF201002FF2010000000000000000000C
:10F0C0002FF201002FF201002FF201002FF20100B8
:10F0D0002FF201002FF201002FF2010000000000CA
:10F0E0000000000000000000000000000000000020
:10F0F0000000000000000000000000000000000010
:10F1000000000000000000000000000000000000FF
:10F1100000000000000000000000000000000000EF
:10F1200000000000000000000000000000000000DF
:10F1300000000000000000000000000000000000CF
:10F1400000000000000000000000000000000000BF
:10F1500000000000000000000000000000000000AF
:10F16000000000000000000000000000000000009F
:10F17000000000000000000000000000000000008F
:10F18000000000000000000000000000000000007F
:10F19000000000000000000000000000000000006F
:10F1A000000000000000000000000000000000005F
:10F1B000000000000000000000000000000000004F
:10F1C000000000000000000000000000000000003F
:10F1D000000000000000000000000000000000002F
:10F1E000000000000000000000000000000000001F
:10F1F000000000000000000000000000000000000F
:10F20000DFF80CD000F0A2F800480047251B0200F0
:10F21000D05000200648804706480047FEE7FEE73A
:10F22000FEE7FEE7FEE7FEE7FEE7FEE7FEE7FEE7B6
:10F23000D9F6010001F201002DE9F05F054600203A
:10F2400092469B4688460646814640241BE0284657
:10F2500041464746224600F068F853465A46C01ACF
:10F26000914110D311461846224600F04FF82D1A4E
:10F2700067EB01084F4622460120002100F046F8C6
:10F2800017EB00094E41201EA4F10104DFDC4846C3
:10F2900031462A464346BDE8F09F000000487047CB
:10F2A000C041020040EA01039B0703D009E008C9FE
:10F2B000121F08C0042AFAD203E011F8013B00F83B
:10F2C000013B521EF9D27047D2B201E000F8012B87
:10F2D000491EFBD270470022F6E710B513460A46D6
:10F2E00004461946FFF7F0FF204610BD421C10F8F7
:10F2F000011B0029FBD1801A7047034611F8012B2E
:10F3000000F8012B002AF9D118467047202A04DBA7
:10F31000203A00FA02F1002070479140C2F1200328
:10F3200020FA03F3194390407047202A04DB203A67
:10F3300021FA02F00021704721FA02F3D040C2F115
:10F34000200291400843194670470000064C074DC3
:10F3500006E0E06840F0010394E8070098471034A5
:10F36000AC42F6D3FFF750FF4C4302006C4302005F
:10F370001CB50CA00323006801902B208DF805001C
:10F3800020208DF806000020009001AA7621064872
:10F3900003F0B0F808B101F00BF804480178002937
:10F3A000FCD01CBDF400000074400200F8250020D1
:10F3B0002DE9F04700268CB0DFF86091B0464FF49D
:10F3C0008075012437460696284603F035FB38B190
:10F3D000D9F80403204203D0284603F023FB264338
:10F3E0002D1D64007F1CADB2082FEDD34FF4BE7409
:10F3F000204603F021FB48B1204603F013FB46F002
:10F40000004606AA0121002003F0F8FA444D16F048
:10F41000FF0F15D00127002437420DD009EB8401DE
:10F42000D1F81005D1F81015C0F3042055F82420A8
:10F43000C1F3014102B190477F00641C082CEBD35B
:10F44000002E67DA4FF0FF30CDE908800026344601
:10F45000281910F8507F90F9000027F0C008401CD0
:10F4600044D009A9404602F0D1FC58B34FEA97199D
:10F47000404601F0B7FF55F820701FB1B9F1030FF6
:10F4800003D00FE0B9F1030F30D108A84FEAD8023A
:10F4900008F00703815C4FF0010C0CFA03FC41EA11
:10F4A0000C0181544FF0A04101EB8800D0F8000717
:10F4B00006A9C0F3014A404602F0A8FC18B1BAF10F
:10F4C000020F03D012E0BAF1030F0FD1B9F1030F0D
:10F4D00008D1BAF1020F1BD00221404603F06AFAAC
:10F4E000761CF6B217B149464046B847641C042C56
:10F4F000AED3002E0ED06A460121002003F07EFA22
:10F5000006990098884205D00690089809909DE7D2
:10F510000321E2E70CB0BDE8F08700000060004086
:10F52000CC2B002000F01F020121914040098000F7
:10F5300000F1E020C0F88012704700F01F020121A6
:10F5400091404009800000F1E020C0F88011704730
:10F5500000F01F02012191404009800000F1E020ED
:10F56000C0F80011704700F01F02012191404009CE
:10F57000800000F1E020C0F80011704700F01F0289
:10F58000012191404009800000F1E020C0F8001204
:10F5900070474907090E002806DA00F00F0000F155
:10F5A000E02080F8141D704700F1E02080F800147E
:10F5B000704700002DE9F0414FF48077384602F0A3
:10F5C000EFFC0124104EA50748B1384602F0EFFCCD
:10F5D0000120C5F808037470002001F00BFF4FF400
:10F5E0008277384602F0DCFC00280BD0384602F067
:10F5F000DEFC0220C5F80803B470BDE8F04101202C
:10F6000001F0F8BEBDE8F081B82B002007480021CA
:10F61000C0F84011C0F84411C0F84811C0F84C11AE
:10F62000C0F80011C0F8041104F050B800100140F7
:10F6300003480078002801D100F0EAB970470000C3
:10F640005830002070B50E46144900EB400001EB25
:10F65000C0051446E86A183520B101280FD00228E9
:10F6600005D113E0284600F007FAA04201D2002499
:10F6700011E022463146284600F036FA0BE02846D3
:10F6800000F0FAF9A042F4D20446F2E731462846E7
:10F6900000F0FDF90446204670BD000058300020FF
:10F6A0000149024802F0DEB8442C0020003000403E
:10F6B00003F05ABF074810B5406830B180470028B2
:10F6C00007D0BDE8104000F073BEBDE8104002F066
:10F6D00051B810BD98260020F0B5B5480023021D92
:10F6E0000178101D01254FF0805406290BD11678A2
:10F6F000360708D10678C6F30316032E06D0042E6B
:10F7000004D0052E02D0062907D00EE0B4F82463F9
:10F71000A84FC6F304263E6002E01678360704D1EF
:10F720000678C6F30316032E02D0062904D00FE094
:10F73000A24FA14E7E670EE01678360708D10678F4
:10F74000C6F30316032E06D0042E04D0052E02D0D5
:10F75000062907D00EE0D4F84462994FC6F342362A
:10F760003E6002E01678360704D10678C6F3031629
:10F77000032E02D0062906D011E0924E376827F0FA
:10F78000807737600EE01678360708D10678C6F322
:10F790000316032E06D0042E04D0052E02D006290F
:10F7A0000AD011E04FF08046C6F80C31C6F810318F
:10F7B000834E361F336002E01678360704D1067890
:10F7C000C6F30316032E02D0062905D00CE07C4FA9
:10F7D000032664373E600AE01678360704D10678BF
:10F7E000C6F30316032E02D006290DD014E0764F7F
:10F7F00005263E60744E78363560734E08363360A9
:10F800003F263F1D3E6002E01678360704D1067899
:10F81000C6F30316052E02D0062957D062E06B4EC0
:10F8200036686B4F3E60694E361D36683F1D3E6040
:10F83000664E083636683F1D3E60644E0C363668AC
:10F840003F1D3E60614E103636683F1D3E605F4E84
:10F85000143636683F1D3E605C4E183636685C4F85
:10F8600020373E60594E1C3636683F1D3E60574E6D
:10F87000203636683F1D3E60544E243636683F1DA4
:10F880003E60524E283636683F1D3E604F4E2C3645
:10F8900036683F1D3E604D4E303636684C4F40371F
:10F8A0003E604A4E343636683F1D3E60474E38361D
:10F8B00036683F1D3E60454E3C3636683F1D3E6013
:10F8C000424E403636683F1D3E6002E016783607ED
:10F8D00008D10678C6F30316032E06D0042E04D0F2
:10F8E000052E02D0062907D019E0D4F85812394A5B
:10F8F00001F04F01116002E0117809070FD1007883
:10F90000C0F30310032803D0042801D0052806D132
:10F9100031480168C90702D06FF001010160D4F8D5
:10F920003001062808D1D4F83401062804D12B4828
:10F93000016841F48061016022487438016841F433
:10F9400070010160BFF34F8FBFF36F8F4FF0102135
:10F95000D1F80002002803DBD1F80402002822DAE3
:10F960001F4A15601F480468002CFCD01524C1F8FC
:10F9700000420568002DFCD0C1F80442016800294E
:10F98000FCD0136001680029FCD0BFF34F8F0D48F5
:10F99000F0380168144A01F4E06111430160BFF3DB
:10F9A0004F8F00BFFDE7124910480860F0BD00000E
:10F9B000E00F00F0403501400DF0ADBA00C0074047
:10F9C0003C050040FCED00E010560040040400102F
:10F9D00020C50040E40E0040000400403C170040F9
:10F9E00004E5014000E401400400FA050090D00362
:10F9F000AC2600200448017F04480029024901D0B8
:10FA000004F009BA04F078B9242C0020002000404A
:10FA100010B5124C02202061606111A0A061A4F514
:10FA20000470E0614FF4007020620020A062606208
:10FA30000BA1A164E062A4F11001E1641021216531
:10FA4000A0656065E06509A1E01DFFF756FC08A10F
:10FA50002046FFF752FC2020A07110BD5830002036
:10FA60005465726D696E616C000000005254540060
:10FA700053454747455200000269C1688A4203D88E
:10FA80008068401A104400E0501A401E70472DE96B
:10FA9000F047C4681746894606464FF000083069AB
:10FAA000A04201D9051B02E0B168201A0D1AB06806
:10FAB0006D1E001BA84200D80546BD4200D33D463E
:10FAC00070682A4620444946FFF7ECFBB0687F1B6C
:10FAD0002C44A844A944A04200D10024F460002F83
:10FAE000DDD14046BDE8F0872DE9F041C668044607
:10FAF000174688468068851B6068BD4206D9304439
:10FB0000FFF7D0FBF019E060BDE8F0812A463044F1
:10FB1000FFF7C8FB7E1B08EB050132466068FFF764
:10FB2000C1FBE660F0E700000FB4054B10B503A978
:10FB3000044A029800F042F810BC5DF814FB000083
:10FB400077160200902600200FB41CB50246002054
:10FB500007AC00290BD0491ECDE90021054B6A46B0
:10FB60002146069800F02AF8009A002111701CBC6A
:10FB70005DF814FB1F00020002E008C8121F08C154
:10FB8000002AFAD170477047002001E001C1121F1E
:10FB9000002AFBD1704700000121202803DA8140B0
:10FBA0000548014003E0402802DA2038814009B1CD
:10FBB0000120704700207047FC06FFBD2DE9FF4F74
:10FBC0008DB00F460546002606E025280BD0DDE95E
:10FBD0000F1290476D1C761C28780028F5D111B0C3
:10FBE0003046BDE8F08F0024A246A1460122EC4930
:10FBF00000E0044315F8013F203B02FA03F00842FD
:10FC0000F7D128782A2810D06FF02F022878A0F199
:10FC10003001092914D80AEB8A0102EB410144F0B2
:10FC2000020400EB010A6D1CF0E701CF5FEA000A55
:10FC300003D544F40054CAF1000A44F002046D1CD8
:10FC400028782E2817D115F8010F44F004042A282B
:10FC50000ED06FF02F022878A0F1300109290AD8C0
:10FC600009EB890102EB410100EB01096D1CF2E790
:10FC700057F8049B6D1C28786C280FD006DC4C28A4
:10FC800017D068280DD06A2814D104E0742810D049
:10FC90007A280FD10DE044F400140AE044F48014F3
:10FCA00001E044F440146978814202D104F58014E3
:10FCB0006D1C6D1C2A786E2A1FD00CDC632A31D093
:10FCC00004DC002A8BD0582A11D1A3E0642A68D022
:10FCD000692A0CD165E0732A2ED004DC6F2A73D018
:10FCE000702A04D19BE0752A6FD0782A6ED0104616
:10FCF000DDE90F129047761C50E1C4F30250022850
:10FD000006D0032809D0042801CF09D0066045E1B8
:10FD100001CFF117C0E9006140E101CF06803DE16C
:10FD200006703BE117F8040B8DF8000000208DF8F9
:10FD30000100EB46012003E057F804BB4FF0FF3011
:10FD400061074FF0000102D40DE008F1010188467F
:10FD500049450FDA8045F8DB1BF808100029F4D17B
:10FD600008E008F1010188468142FADB1BF808101F
:10FD70000029F6D1DDE90F23AAEB080081462146D0
:10FD800000F036F9304400EB080604E0DDE90F121C
:10FD90001BF8010B9047B8F10108F7D221464846FD
:10FDA000F7E00A21C4F302534FF0000B0891022B35
:10FDB00004D001CFC117032B09D00AE0FF1D27F0A3
:10FDC0000707F7E8020108E032E01FE020E000B298
:10FDD000C117042B01D140B2C117031E71F10003FA
:10FDE00007DA4FF0000CD0EB0C006CEB01012D2377
:10FDF00002E0230504D52B238DF82430012303E0F2
:10FE0000E30701D02023F7E7984658E00A2110E0E5
:10FE100010210EE010204FF0000B08900CE0102194
:10FE20004FF0000B44F004044FF00809089103E080
:10FE300008214FF0000B0891C4F30253022B04D0A9
:10FE400001CF0021032B06D006E0FF1D27F0070796
:10FE5000F7E8020103E080B2042B00D1C0B24FF0FA
:10FE6000000823072BD5702A07D0DDF820C08CF0BE
:10FE7000100C5CEA0B0C05D00EE040238DF824300A
:10FE8000012308E050EA010306D030238DF8243026
:10FE90008DF8252002239846DDF820C08CF0080C50
:10FEA0005CEA0B0C0BD150EA010301D1630706D5C4
:10FEB00030238DF824304FF00108A9F10109582AA8
:10FEC00004D038A20B9208AA0A920BE03AA2F9E7F2
:10FED0005B46089AFFF7B0F90B9B9B5C0A9A521E8F
:10FEE0000A92137050EA0102F2D10A98ADEB0000B9
:10FEF00000F1200B600702D524F4803401E04FF0BC
:10FF00000109D94502DDA9EB0B0000E0002000EB60
:10FF10000B0141440890AAEB010AE00306D4DDE995
:10FF20000F232146504600F063F806444FF00009C5
:10FF300008E009A911F80900DDE90F12904709F15D
:10FF40000109761CC145F4DBE0030CD5DDE90F2384
:10FF50002146504600F04CF8064404E0DDE90F125B
:10FF600030209047761C0899481E08900029F5DC3F
:10FF700008E00A980A990078491C0A91DDE90F12F5
:10FF80009047761CBBF10001ABF1010BF1DC21467F
:10FF90005046DDE90F2300F019F806446D1C1BE6FE
:10FFA000092801003031323334353637383961624F
:10FFB0006364656600000000303132333435363713
:10FFC0003839414243444546000000002DE9F041E4
:10FFD000044600251E461746880404D405E0394629
:10FFE0002020B0476D1C641EF9D52846BDE8F0817D
:10FFF0002DE9F041044600251E469046C80301D570
:020000040002F8
:10000000302700E02027880404D505E04146384623
:10001000B0476D1C641EF9D52846BDE8F0814A68DA
:10002000002A06D00A68531C0B6010704868401EF6
:10003000486070472DE9FC47002517880646158063
:1000400090F82D001446894630B13A46214648467C
:1000500000F0A6FD050009D1B0784FF00C0A18B3E6
:100060002088C846001DB84202D95046BDE8FC872A
:10007000684679DF0028F9D12088032108F80010AC
:1000800020881921401C80B2208008F800102088A8
:10009000401C80B2208000EB0801BDF8000003F096
:1000A00032FF218808442080F0780222C8B12188DC
:1000B00096F9033001F1030C4846BC45D5D84254AB
:1000C00021884FF0010C491C89B2218000F801C041
:1000D0002188491C89B2218009F801302088401C00
:1000E00020807068B8B1218890F9003001F1030CCC
:1000F0004846BC45B9D8425421880A22491C89B2D5
:10010000218042542188491C89B2218009F801309C
:100110002088401C2080308950B1CDE900474B46F3
:100120000622022106F1080003F03AFF05009DD1E6
:10013000308A50B1CDE900474B460722032106F132
:10014000100003F02DFF050090D1308B50B1CDE9A8
:1001500000474B461522142106F1180003F020FF3A
:10016000050083D1306A30B13B462246494601F052
:10017000ABF90500DBD1706A30B13B4622464946F7
:1001800001F0C4FD0500D2D196F82C0038B13B46F1
:1001900022464946304603F083F80500C7D130783F
:1001A00038B13B4622464946304601F0E1FD0500A4
:1001B000BDD128465AE70000134A0021535C0BB119
:1001C000012203E0491C0629F8D300220F49012827
:1001D00006D0022809D003280CD0042812D10DE043
:1001E000487810B10AB101207047887810B10AB17F
:1001F00002207047C87808B103207047087908B119
:1002000004207047002070473D260020C82A0020A7
:1002100010B501220221002000F048FF08B1072894
:1002200010D107220221012000F040FF08B1072869
:1002300008D100210A22084600F038FF08B107283B
:1002400000D1002010BD000030B5A7B03C2101A8AE
:10025000FFF741F802208DF8040000248DF80640D5
:1002600005208DF807003C2110A8FFF734F80F484F
:1002700001251590ADF8505020211FA8FFF72BF84D
:10028000402023908DF87F50B4202490084B1FAA63
:1002900010A9009401A800F0B7FA08B100F088F89E
:1002A000012000F0ABFA27B030BD0000FE25002091
:1002B000DD2D0200022000F0BDBD000070B500245D
:1002C000064D06E06868012110F8340001F0AAFF2D
:1002D000641C28788442F5D3002070BD5826002085
:1002E000F8B515460C460646052A01D20720F8BD8A
:1002F00002F07EF818B902F04DF80028F7D1104945
:1003000000204E600C70C1E902500E4D08610DE0F6
:1003100006EBC4006968009181788DF801100078BF
:10032000094A694601F0D0FF0028E0D1641EE4B21A
:10033000EED2BDE8F840054A0021024800F06CB852
:1003400058260020144102001D170200B1150200BA
:100350000AA1012002F0B0FC0CA1032002F0ACFCC9
:10036000BFF34F8F10480168104A01F4E061114358
:100370000160BFF34F8F00BFFDE700003A455252C6
:100380004F523A466174616C0D0A00003A494E467C
:100390004F3A486974207765616B2068616E646CC0
:1003A00065720D0A000000000CED00E00400FA0583
:1003B0000EB500210091CDE901106A4644F201001A
:1003C000FFF7C6FF0EBD10B58268C368934203D025
:1003D00001F03EF9002010BD052010BD29B112B179
:1003E000531E134203D0092070470E20704701604E
:1003F000838000218160C1600846704710B5826823
:10040000C3689A1A83889A4203D801F02BF9002016
:1004100010BD042010BD0000084B9B7823B12AB109
:1004200020B10068037C1BB108207047072070478B
:100430000023037441744261184670478C2C0020DD
:1004400070B502F039FE104800240B21047044708E
:100450000E4D817014206C602C706C70FFF762F888
:1004600007211420FFF795F81420FFF771F80848CA
:10047000046007211120FFF78CF80548001F006871
:10048000A860002070BD00008C2C00206C2600208D
:10049000081501402DE9FC47DFF8789099F8023003
:1004A00073B368B3052902D20720BDE8FC8743690E
:1004B00033B3437C012B25D0002704460025884612
:1004C00016468DF80050684600F0CAF801A803F0FF
:1004D0004FFDC8B1012101700F4944600968C0E9AE
:1004E0000218C0E904769DF8040089F801009DF81F
:1004F000000000F0D9F81420FFF740F82846D4E7B0
:100500000820D2E70F46D8E704259DF8000000F048
:10051000CBF8F3E78C2C00200415014006498978BC
:1005200039B130B1416921B100210174022103F0D8
:10053000A9B80820704700008C2C002070B50A4E26
:1005400001460A48B578FFF73EFF04464DB100204A
:10055000B070711C0122C81D02F024F808B1FFF729
:1005600027FF204670BD000080260020982D002027
:10057000F0B5284E89B01F460D00044672603BD08E
:10058000A888296882B22448FFF728FF002834D1C0
:10059000A889A96882B220481030FFF71FFF002801
:1005A0002BD120221D496846FEF77CFE606906902B
:1005B000207C00B101208DF814008DF81C70607C47
:1005C00000B10E208DF81500E0680290A06803903D
:1005D00020680190606800900E48114A6946083012
:1005E00001F0ACFF002808D1B0702068401C04D096
:1005F0009DF81D0018B106E0072009B0F0BD0548C0
:10060000083002F027F803490122491CC81D01F0F7
:10061000C9FFF2E780260020982D00201C4102002F
:10062000593C020010B501460B48FFF7E7FE0400F5
:1006300010D10A4802F058F960B90849064808394B
:10064000FFF7C1FE30B9054901220839034802F01D
:10065000C5F80446204610BDA82D0020882600209D
:1006600030B5EFF3108172B60D4A9468012324B1BE
:100670000370002900D162B630BD93604FF0E023D3
:10068000D3F88051074C25401560C3F88041D3F85A
:10069000844154605A17C3F8842100220270E8E7AD
:1006A000B82D0020FC06FFBD0B498A68002A11D036
:1006B00000280FD1EFF3108072B60B684FF0E022E4
:1006C000C2F800314B68C2F8043100228A60002869
:1006D00000D162B670470000B82D00202DE9F0412E
:1006E000064608680C46411C4FF0A0474FF0010534
:1006F00006D005FA00F1C7F80815206802F03FF9A6
:100700006068411C02D0002102F030F930792049A4
:1007100001EB4010A169007F00283068C0F8241563
:1007200025D0607D227D31681043C1F86C05D4E985
:1007300000123068C0F80C15C0F8142524E0A06839
:10074000411C02D0002102F011F9E068411C05D0E3
:100750008540C7F80855E06802F011F9D4E90212A3
:100760003068C0F80825C0F81015BDE8F081607D3C
:10077000217D32680843C2F86C05D4E90012306864
:10078000C0F81425C0F80C15207D0128D7D0ECE75F
:10079000242C0020F0B50C4693B01F210726ADF89D
:1007A0000010ADF80410002750B1C17849070DD5ED
:1007B0006A4602A9FFF73EFC002808D102AD02E01C
:1007C0000025ADF800706CB1E07810B1304613B080
:1007D000F0BD01AA0AA92046FFF72CFC0028F6D19B
:1007E0000AAA02E00022ADF80470BDF80400C3B20A
:1007F000BDF80000C1B2284672DFE8E70149087180
:1008000070470000242600202DE9F0471F46DDF840
:10081000208013468946040043D0EBB3404D0120AD
:1008200000262870EE70202219463E48FEF73AFD59
:100830002E71C5E904784FF6FF706881AE613948C2
:10084000AE83AE773C212030FEF745FD3548217858
:1008500020300170A1788170E178C17061784170B9
:100860003049D4E90423C1E90C23D4E90223C1E9C6
:100870000A23D4E90623C1E90E23616AE1B100F13C
:100880003C0100F1480241628A60636A1B880B8068
:10089000616A436A898800E003E099800021436A25
:1008A00007E00E20BDE8F087656AAD686D5C5554C1
:1008B000491C9D888D42F7D8A16AD9B1194A943252
:1008C000A2F10C018A608162A36A9B888B80A16A75
:1008D000836A098819800021836A04E0A56AAD68EB
:1008E0006D5C5554491C9D888D42F7D894F82C10A6
:1008F00080F82C10216A49B109490C310162226A41
:1009000052884A80216A026A09881180616801B1AF
:1009100041604946BDE8F04702482030FFF73ABF42
:1009200024260020C82A002010B50188144C102964
:1009300018D011291CD01B2919D1007A002816D1F2
:10094000E0780521401CB0FBF1F201FB120000BF72
:1009500000F036F800280AD06169002907D0BDE808
:1009600010400847C17B012901D18088608110BDFA
:100970000021A171808861898842F8D10120E7E7D0
:100980002426002010B574DF0B4C01200B49A07108
:10099000002020720620C87000210848FFF7FAFEE8
:1009A000002807D1E07800F00BF810B1616901B1BF
:1009B0008847002010BD000024260020E82A0020DF
:1009C0002DE9F0413D4C804686B0207848B184F84E
:1009D000038004A800F056FE0498012628B1667032
:1009E00068E0082006B0BDE8F0810025A561344F1D
:1009F000A583A577787810B1E078012806D0B8787B
:100A000058B1E078012801D0022806D1216919B136
:100A100066710820884700E065714046FFF7CCFB0F
:100A2000E070216939B1032801D0042803D1387856
:100A300008B1A07990B1E5710095029501950395F3
:100A40008DF800508DF808501C48E17818300529C1
:100A500025D2DFE801F03108111D21002572E67171
:100A600007208847E8E7A67001908DF80060ADF890
:100A70000C50ADF80A5014E00221A17001908DF8DD
:100A80000060B889ADF80C003889ADF80A0008E0BC
:100A9000684602F049FC02E0684602F069FCE07832
:100AA00020B12179684673DF00289BD1216909B103
:100AB000A0788847002095E7A570F7E72426002056
:100AC000C82A002070B5054601461C220F48FEF7D3
:100AD000E9FB0F4C00262670286830B10168616080
:100AE0004068A060201D7ADF02E00948001D7BDF1E
:100AF00000280AD14FF6FF7060806670BDE8704034
:100B0000044A00210448FFF787BC70BD9C2B0020DD
:100B100044260020113F0200D840020070B51E4C50
:100B2000068800231B49E289102E15D01B4D112E7B
:100B30001CD0122E29D0502E17D130F8061F91420A
:100B400013D14189022910D10C3000F0FAF888B194
:100B5000BDE8704000F0FEBC84884C800469CC6025
:100B6000406908614B70002AF2D070BD4FF6FF70EB
:100B700048804B702868FFF7D1FC0028F5D0A169A8
:100B80000029F2D0BDE8704008478268CA60C0689A
:100B90000861DDE7442600209C2B0020D84002009D
:100BA0007CB5054608880C460930904201D90C20D6
:100BB0007CBD68466DDF0028FAD121880820685482
:100BC00020881B21401C80B2208029542088401C92
:100BD00080B220802844DDF801100160BDF80510C6
:100BE00081802088801D80B220809DF800104908F7
:100BF00000D0012129542088401C208000207CBD89
:100C000010B50446FFF78AFF2146094801F028F98C
:100C1000074821461C3800F03FF8204602F0F0F863
:100C20002046FFF781FE2046BDE8104000F08AB95B
:100C3000402A002030B5174B0D4604000FCB85B07D
:100C40008DE80F0023D015B34FF6FF70A0822868FF
:100C5000A0610020A0752146684662DF002814D1FB
:100C600020788DF812000120ADF81000A21C04A914
:100C7000A0DF002809D12946204602F054FA0028B6
:100C800003D12946204602F039FF05B030BD0E20C1
:100C9000FBE70000F440020010B5002822D0002934
:100CA00020D00A88102A18D0112A18D0502A19D119
:100CB00004468A1DC88823891231984202D153897B
:100CC000022B10D0A38998420CD1A369002B09D024
:100CD00052892046BDE810401847898801E04FF648
:100CE000FF71818210BD084600F02BF800B1012091
:100CF000A07510BD07B584B068B1828AA2F57F43A4
:100D0000FF3B0AD0827D42B1BDF818209B2A06D94C
:100D1000072007B000BD0E20FBE70820F9E70022FE
:100D200000920192029203928288039106A9029195
:100D3000ADF8002001218DF80210808A6946A6DFF7
:100D4000E7E7007800F001007047000030B52B485D
:100D500085B0002300680490D822294904A802F035
:100D6000CBFB08B1FFF724FB00246846009402F097
:100D700035FB08B1FFF71CFB012501948DF80450E9
:100D80008DF80540029403948DF8064001A9402097
:100D9000009A69DF08B1FFF70BFB01948DF804504E
:100DA0009E20ADF806000294039401A92320009A26
:100DB00069DF08B1FFF7FCFA019402944FF4A070C8
:100DC0008DF80450ADF8080003948DF8065001A981
:100DD0002020009A69DF08B1FFF7EAFA684602F0BE
:100DE00011FB08B1FFF7E4FA064802F001FB002806
:100DF00001D0FFF7DDFA05B030BD00007040020001
:100E0000B0260020010C02000149085C7047000078
:100E1000A84002000649095C4FF0A040D0F8100538
:100E2000C84010F0010000D0012080F001007047A0
:100E3000A840020007490B5C4FF0A041D1F80425FF
:100E40000120984020EA0203C1F808351040C1F89B
:100E50000C057047A44002000249085C012101F022
:100E6000C1BD0000A44002000249085C002101F05D
:100E7000B9BD0000A44002000649095C4FF0A04043
:100E8000D0F80405C84010F0010000D0012080F027
:100E900001007047A44002007CB50024084E25469E
:100EA0000122305D009500231146019501F028FDD7
:100EB000641C042CF4D3BDE87C4000F003B80000AF
:100EC000A440020010B500242046FFF7C5FF641CB3
:100ED000042CF9D310BD10B500242046FFF7C4FF41
:100EE000641C042CF9D310BD10B50246064B4FF01C
:100EF000FF3000215C5C944201D1084610BD491CC2
:100F00000429F7D310BD0000A840020070B50C4EB4
:100F10000C004FF0000530600BD0012000F0A2F86B
:100F200008B1022004E0002000F09CF800B10B2082
:100F30002070706810B9FFF76BF90546284670BD40
:100F40001C26002010B51A4C0188606810290ED0AC
:100F500011292BD1401E606028D1FFF759F90028D4
:100F600024D02168002921D0BDE810400847D0B91D
:100F700000210122084600F099F808B107280FD196
:100F800007220221012000F091F808B1072807D1BB
:100F900004220221002000F089F820B1072802D0A5
:100FA000216801B188476068401C606010BD000086
:100FB0001C26002010B5002000F0CCF908B106284E
:100FC00006D1012000F0C6F908B1062800D10020A2
:100FD00010BD00002DE9F0470D468146FFF784FF64
:100FE0000446042836D2DFF874801B481C4EA8F152
:100FF0000C0725B3012D0ED0022D2BD104EB44009C
:1010000030444578002D25D0B968002922D02846E3
:10101000BDE8F047084704EB4401755C0E44717865
:1010200049B10E4A4FF40041093A8068FFF732FA9D
:1010300008B987F80390B17808F80410E2E78068EF
:10104000FFF76CFA04EB4401314418F804008D7882
:10105000A842D7D0BDE8F087AC4002001826002097
:101060009C2A0020FFF7D6BE01460F4810B54088E5
:10107000042907D007290ED00A2914D1BDE8104051
:1010800002F098B9132176DF0BE000280BD0BDE801
:101090001040FFF78DB9A0F57F41FF3903D1FFF76D
:1010A00071FC0828F1D110BDF825002070B500238F
:1010B000042810D20D4D00EB4004012A02D1012971
:1010C0000CD00022094E00EB4000304461B10129F0
:1010D00006D0022906D00723184670BD0E30C2B2D2
:1010E0002A55F9E74270F7E78270F5E79C2A00205D
:1010F000044A014600201279D20702D0084600F0C7
:101100004DB870470C26002070B506461E480024D6
:10111000C0E90161B00720D500250122114628460B
:10112000FFF7C4FF6D1C0446042D02D2002CF4D03E
:1011300013E094B940F2666204211448FFF7D0F836
:1011400004000AD1FFF7BAF8040006D10F48104A8C
:101150000021001FFFF760F90446F00701D0FFF7F8
:101160009BFE74B909480B4A00210C38FFF754F96B
:10117000040006D10548084A01210838FFF74CF958
:101180000446204670BD00000C260020B840020036
:1011900077130200011A0200B50202002DE9F05F88
:1011A0006A4C054600266078B34618B184F801B051
:1011B00000F00EFC664F4FF47A694FF4C87A4FF096
:1011C0000108182D62D2DFE805F0AC0C0C31404D5F
:1011D00062676B746B74BE7D7D7D7D7DACAFB2B597
:1011E000BEBE0020FFF748FE00284FF0000008D0E8
:1011F000FFF732FE022D02D14FF4E16008E04846CD
:1012000006E0FFF731FE022D01D1C82000E0504674
:10121000410CC0034FF4FA72801841F100012570AF
:1012200052000023FEF708F801462AE00020FFF7ED
:1012300023FE00284FF0000004D0FFF70DFE4FF40E
:101240004870E5E7FFF710FEDFE70020FFF714FE28
:1012500000284FF0000002D0FFF7FEFDCFE7FFF7B8
:1012600003FED4E70020FFF707FE00284FF0000040
:1012700002D0FFF7F1FD01E0FFF7F6FD257041F622
:101280009A1100223868FFF705F9064646E000206B
:10129000FFF7D0FD257008E0002051E025703DE00B
:1012A00084F801800120FFF7C5FD002240F6CD4102
:1012B000E8E784F801800120FFF7BCFD00224FF42D
:1012C0008041DFE77868FFF729F90646D5F111007C
:1012D00000D02EB10220FFF7BFFD84F802B01DE060
:1012E000012816D980B2C8214843C117C90341EA71
:1012F0005041C0034FF4FA72801841F100015200CE
:101300000023FDF799FF014600227868FFF7C2F835
:1013100006460220FFF7A8FD84F802803046BDE8AB
:10132000F09F00F055FBB9E700F052FBB4E700F086
:101330004FFB04E000F04CFB0020FFF795FD01207F
:10134000FFF792FDAAE7FFF7C6FDA7E70C260020EE
:10135000AC40020010B5FFF757FD032101F019FB67
:10136000002010BD002901DA0020704702681144F6
:1013700001600120704700780221FFF72BBE0000BA
:1013800005494FF0FF32082841F8202002D30844D5
:1013900080F8482070470000CC2B0020F0B54FF0BB
:1013A000FF3512B10023082601E008230C260C4C5F
:1013B00005E000BF54F823707F1C04D05B1CB342CF
:1013C000F8D32846F0BD26185DB286F8305044F8B0
:1013D0002310002AF5D1E11881F84800F1E7000058
:1013E000CC2B00200249084490F9300070470000DF
:1013F000CC2B002070B5084C050009D010342168B2
:10140000002907D008682060496828468847F6E721
:101410000834F4E770BD0000B82B00202DE9F05F20
:1014200026484168F1B3DFF898B00E688146DBF8D2
:10143000004087688078E11B21F07F45ED1CB0B942
:10144000DFF880804FF48030C8F84403C8F8040304
:101450001120FEF767F81120FEF77AF84FF0010A25
:10146000C8F800A02F2000F037FE89F802A0B5428E
:1014700000D23546124BE8193C3320F07F4018600B
:10148000DBF800105A46091B21F07F41001B20F0B9
:101490007F40C91C81420FD9106818602F2000F0CE
:1014A0001BFE00E004E0BDE8F05F1120FEF766B827
:1014B000BDE8F05F01F000BEBDE8F09F6C260020A3
:1014C00004150140001001402DE9F041178806463F
:1014D000B81D14460D46984202D90C20BDE8F08193
:1014E0003188072206290AD34FF4486C4FF6FF7360
:1014F000614501D9994202D17088062801D210466F
:10150000ECE7604501D99842F9D1994203D098425D
:1015100001D08142F3D80520E85520881221401CD3
:1015200080B2208029542088401C80B2208041193C
:10153000308802F0E8FC2188084480B220804119FC
:10154000708802F0E0FC2188084420800020C5E774
:10155000FEF72EBFF8B5134800F02CFA114D002607
:10156000114C0C3D30B16169B9B101208DF800001A
:10157000684611E0287820B1616971B18DF800608A
:10158000F6E7687858B1A168084800220068FEF7BD
:1015900081FF10B1A16901B188472E70F8BD616863
:1015A000F2E70000502600209C2B0020D8400200CB
:1015B0002DE9F04100260125144C22E060682269E3
:1015C00000EBC607387805FA00F1114217D08A43BC
:1015D000226100F0D5FE02463878E36805FA00F192
:1015E000194002FA00F3994209D17978012901D012
:1015F000012100E0002151407A6802B19047761C39
:10160000F6B220788642D9D3BDE8F0815826002072
:101610000E4910B50A784C780023A24212D0521C11
:10162000D2B20A70022A00D10B70084A0B780C3231
:1016300052F8232002608868104420F07F408860C0
:10164000012010BD0360002010BD00006C260020AA
:10165000826883881A4003689A5C0A708168491C12
:1016600081607047C26883881A4003689954C168D2
:10167000491CC160704710B50446C0B2FEF7D2FFE6
:10168000204610BD20B10349496E0160002070471B
:1016900003207047C42D002009484A8843889A4295
:1016A0000DD10A88A2F52063773B08D18988C91E2D
:1016B0008AB28280134603A1032001F008BB704761
:1016C000F82500204150503A494E464F3A44617443
:1016D00061206C656E2069732073657420746F20BF
:1016E00030782558282564290D0A000010B50949CD
:1016F000094800F09FFB08B1FEF75AFE402106485A
:1017000000F08CFB002803D0BDE81040FEF750BE6F
:1017100010BD000099160200402A00202DE9F0417A
:10172000124E07460125BD403068FEF7F7FE00283F
:101730000DD10F4C2069284207D1384600F020FE19
:101740000028E06805D0284304E0A8432061BDE8F4
:10175000F081A843E060206928432061A1683068D7
:10176000BDE8F0410022FEF795BE000014410200E2
:1017700058260020F8B51C4C2078002832D020696B
:10178000002658B10025607800282BD1684648DF34
:10179000052805D030B1FEF70BFE0AE00125F2E77F
:1017A000012606E0009800F019FDA16809B1009833
:1017B00088479DB96078002814D16088ADF8000092
:1017C0006946E06861DF052803D020B1FEF7F0FD2F
:1017D00004E0012502E0D4E903018847002ED2D0BD
:1017E000002DE6D0F8BD00009826002070B50E460A
:1017F0000446007918494FF4A27501EB4010017FAF
:101800002068A1B14FF4887101F0A2FA4FF49071F1
:10181000206801F09DFA4FF49271206801F098FA67
:101820002946206801F094FA0C49206809E04FF439
:101830008E7101F07CFA2946206801F078FA084997
:101840002068C0F80413206800F0E9FC3146BDE8C8
:10185000704000F0C8BC0000242C002010030200DF
:10186000800002002DE9FF470D464FF492770446B1
:10187000394601F04CFA4FF002094FF001084FF4DD
:10188000827640B13946204601F046FA314620467C
:1018900001F03DFAB0B3B2463146204601F037FAC6
:1018A0004FF0FF36002770B35146204601F034FA5E
:1018B00005F10C0001AB07C883E8070095F8230089
:1018C00078B1287B01282DD0D4F84C05C0B28DF812
:1018D0000600287B022828D0D4F84C05C0B28DF829
:1018E00007004FF4B071204601F016FA4FF4AE71C4
:1018F000204601F011FA95F8250080B395F82300F1
:1019000068BB3CE000E013E0A868C4F80803C5F831
:101910000890A868C4F80403C4F82080C4F81480B0
:10192000BDE8FF87D4F83C05D0E7D4F83C05D5E7FF
:101930004FF4A471204601F0EFF9287B80B14FF4F9
:101940000070C4F80002801CA860C4F80863A8688E
:10195000C4F80403C4F80880C4F82080E0E708E075
:1019600005F10C0001AB07C883E8070095F82500D6
:1019700028B90020C4F80002AF60C4F80863D4F8A6
:10198000C404C4F8C404810702D58DF8008006E0C1
:10199000400702D58DF8009001E08DF8007095F8B1
:1019A000250008B985F82470D5E9002168469047DC
:1019B000B6E70000054940880A88904204D3498868
:1019C000884201D801207047002070474826002037
:1019D0000A4810B5807860B1002401E0022C06D0DE
:1019E0002046FFF739FA641C042CF7D310BD0324FA
:1019F000F6E7BDE81040FFF765BA00000C260020AE
:101A000003480179C90702D00078FFF7C7BB7047C8
:101A10000C2600209E2101801721418000210171A8
:101A20004171A22181711B21C17170472DE9F047DD
:101A3000394E002780463D46DFF8E090D6F804A0F6
:101A400057E003D00446D0F81C8035E099F8002018
:101A500002EB4201521CD2B289F8002009EBC1010D
:101A600099F80230091D9A4201D189F8005048685E
:101A70000A780446012A12D0022A02D0032A3BD156
:101A800008E001F0CFFD00B10127257434E00574B2
:101A9000C06900E070680028F9D170602CE0207CFB
:101AA00050BB88686060C868A0600869E0604869E9
:101AB000A061F07800B165606268B168184B501A97
:101AC00020F07F40984202D2A168084406E0881ABC
:101AD000A16820F07F40814202D9081A206000E00E
:101AE000256065600120A56020742046E56101F055
:101AF0007BFDB8F10000A4D199F8001099F801001D
:101B00008142A3D117B97168514502D00120BDE8C7
:101B1000F0870020FBE700006C2600208C2C0020C2
:101B2000FFFF7F008AB0FEF78BFC08B1FEF740FC98
:101B30001822554904A8FDF7B5FB544800905449B4
:101B40004FF48070CDE9010103900723514A6946A3
:101B500004A8FEF70DFD08B1FEF72AFC002001F0F5
:101B6000C5F808B1FEF724FC4B490320FFF7CCFA77
:101B700008B1FEF71DFC01A90020FFF7C7F908B165
:101B8000FEF716FCFFF7E2F89DF80C0043A120F0E9
:101B90000F00401C20F0F00010308DF80C000622E1
:101BA00003A87CDF08B1FEF703FC0024009410209A
:101BB000ADF800003C200194ADF80200ADF80440FF
:101BC0004FF4C870ADF8060068467ADF08B1FEF73A
:101BD000EFFBFFF78BFD3348009069463248FFF773
:101BE00029F808B1FEF7E4FBFEF72EFB1C2168463E
:101BF000FDF771FB4FF42030CDE900404FF4702029
:101C0000029003208DF80C00284805902848069083
:101C1000ADF80E408DF810406846FEF753FF08B14E
:101C2000FEF7C6FB01F022FE22A0FDF77DFF26A1F4
:101C3000032001F041F80320FEF7C2FE08B1FEF7D1
:101C4000B7FBFDF795FB264E264F00256D1C294658
:101C500025A0FDF769FF304600F0B2F908222149BE
:101C60001148FFF747F801F0FFF9002421463A5DDB
:101C700021A0FDF759FF641C082CF7DB3EDF00288C
:101C8000E4D0FEF795FBE1E77C400200232800202A
:101C900023290020F53B020069100200445F5541F2
:101CA000525400005D2D0200242A0020312F020032
:101CB000511502000D0A554152542053746172743B
:101CC00074210D0A000000004150503A494E464F21
:101CD0003A55415254205374617274210D0A000028
:101CE00040420F00022600200D0A697465723A20F6
:101CF00025690D0A0000000073656E736F725B2525
:101D0000695D3D2025690D0A0000000070B514468C
:101D100082880E4605462088111D0144921C994276
:101D200001D8FE2A01D90C2070BD521C32542088E3
:101D3000FF21401C80B2208031542088401C80B29A
:101D400020808119288802F0DEF82188084480B2BA
:101D50002080AA8842B1A96841B13044FDF7A2FAB7
:101D60002088A98808442080002070BD072070BD0D
:101D7000F8B50E46017814460546012901D1687868
:101D800030B12088821C9A422DD8012902D006E069
:101D90000720F8BD69780144891C994223D8181A94
:101DA000801E87B2ADF800702188B01C08446946D7
:101DB0007DDF0028EDD12878022805D1BDF800107C
:101DC000B94201D809210AE00821012805D1687823
:101DD000B84202D8ADF8000001E0ADF80070BDF8DF
:101DE0000000FE2801D90C20F8BD2288401CB05408
:101DF0002088401C80B2208031542088401C2080E4
:101E0000BDF80010084420800020F8BDC20800F092
:101E100007030120895C98400840704728B1A1F170
:101E20001702882A03D3072070470E2070470180CD
:101E30000020704770B5040010D09E20A161208062
:101E40006080A2202071002504EBC500801DFFF7F3
:101E5000E1FD6D1C022DF7D3002070BD0E2070BD7A
:101E60002DE9F0418D8890B00446022D7ED208887D
:101E7000DFF82081002622283CD006DC102809D07B
:101E800011280BD021286AD150E03A280CD05528CF
:101E900065D12BE0204601F059F860E004EBC50065
:101EA000801DFFF7B7FD5AE02A4604EBC2074889B8
:101EB00037F8061F814200D808467880172800D2DC
:101EC00017207880A06970B1787960B1D8E90010E6
:101ED000CDE90010ADF802207888ADF80400A269C1
:101EE0002046694690477E713E7138E0204601F0F9
:101EF0006FF834E034226846091DFDF7D3F9BDF8C8
:101F00000000BDF8042004EBC0014A73A26932B39B
:101F1000D8E90432CDE90D32ADF83600487B8DF8B2
:101F20003800A26920460DA9904718E00096019656
:101F300031F8040F04EBC0000A79007B904200D313
:101F40001046ADF80000ADF802000888002269468E
:101F50008FDF020003D01049012000F0B1FE04EB36
:101F6000C504A07A002812D0E18800E00FE02846DE
:101F70009EDF020008D0112A09D010B00749BDE841
:101F8000F041012000F09CBEA6720120E07210B06A
:101F9000BDE8F081DC40020078420200C44102004A
:101FA00000F180400068002800D00120704708B58B
:101FB00000F18040002101600068009008BD000031
:101FC00000283ED01F49204A096800BF00BF00BF5B
:101FD00000BF00BF00BF00BF00BF91422FD000BFB5
:101FE00000BF00BF00BF00BF00BF00BF00BF00BFF9
:101FF00000BF00BF00BF00BF00BF00BF00BF00BFE9
:1020000000BF00BF00BF00BF00BF00BF00BF00BFD8
:1020100000BF00BF00BF00BF00BF00BF00BF00BFC8
:1020200000BF00BF00BF00BF00BF00BF00BF00BFB8
:1020300000BF00BF00BF00BF00BF00BF00BF401E09
:10204000C3D17047AC2600200024F40000283ED005
:102050001F49204A096800BF00BF00BF00BF00BF82
:1020600000BF00BF00BF91422FD000BF00BF00BF24
:1020700000BF00BF00BF00BF00BF00BF00BF00BF68
:1020800000BF00BF00BF00BF00BF00BF00BF00BF58
:1020900000BF00BF00BF00BF00BF00BF00BF00BF48
:1020A00000BF00BF00BF00BF00BF00BF00BF00BF38
:1020B00000BF00BF00BF00BF00BF00BF00BF00BF28
:1020C00000BF00BF00BF00BF00BF401EC3D17047AC
:1020D000AC2600200024F40000283ED01F49204AEE
:1020E000096800BF00BF00BF00BF00BF00BF00BF46
:1020F00000BF91422FD000BF00BF00BF00BF00BF94
:1021000000BF00BF00BF00BF00BF00BF00BF00BFD7
:1021100000BF00BF00BF00BF00BF00BF00BF00BFC7
:1021200000BF00BF00BF00BF00BF00BF00BF00BFB7
:1021300000BF00BF00BF00BF00BF00BF00BF00BFA7
:1021400000BF00BF00BF00BF00BF00BF00BF00BF97
:1021500000BF00BF00BF401EC3D17047AC260020A7
:102160000024F40070B50F4C0025207808B18525B7
:1021700016E00021A16061602161E1604FF0E02084
:10218000D0F80001012610F0010F03D10721002033
:1021900000F029F801F0E2F908B90348066026705A
:1021A000284670BDB82B00201805004038B5002027
:1021B0008DF800006846FEF753FA074C207808B9FE
:1021C000FFF7D0FFE068401CE0600120A0709DF8A0
:1021D0000000FEF769FA38BDB82B0020002801D1B5
:1021E000FFF708B970474907090E002806DA00F022
:1021F0000F0202F1E02282F8141D03E000F1E02258
:1022000082F8001400F01F02012191404009800073
:1022100000F1E020C0F88012C0F800117047000BF8
:1022200040B270472DE9F0418846054600F004FFB2
:10223000234E002828461AD0FFF7D4F8304490F8EF
:1022400048008009032802D001280ED007E04FF093
:10225000A040D0F81005E84010F0010F05D0032190
:102260002846BDE8F04100F0A5BB0221F8E700F0E8
:10227000EFFE002822D02846FFF7B4F804464FF4BA
:10228000807000EB84000F4F81B207EB8400D0F820
:10229000102542F00102C0F81025084600F0C2FBEC
:1022A000B8F1000F0AD02846FFF79CF856F8200036
:1022B000002803D00120A040C7F80403BDE8F08146
:1022C000CC2B0020006000402DE9FC41DFF8A48009
:1022D000044608EB0400002790F930001346C017AD
:1022E0000E46401C01D0082741E0F27819462046EE
:1022F000FFF754F80546401C38D0B07850B14FF085
:10230000A04000EB8400D0F8001721F00201C0F8D3
:10231000001707E000217378204600910A460191DA
:1023200000F000FBF078C0B11348317800EB850075
:10233000D0F81025114B1A40C0F810254FF4F85270
:102340004FF4403302EA042203EA01410A43D0F881
:1023500010150A43C0F8102509E008EB0500327893
:1023600010F8481F41EA8211017000E00427384646
:10237000BDE8FC81CC2B002000600040FFE0FCFFAA
:102380004FF0A041D1F81015C14011F0010000D06C
:102390000120704770B5144D95F8540008B108201D
:1023A00070BD0020411E2A18401CC0B282F83010B7
:1023B0002028F8D300242046FEF7E2FF641CE4B294
:1023C0000C2CF8D307210620FFF70DFF4FF4BE7049
:1023D00000F028FB05494FF00040C1F8040301203C
:1023E00085F85400002070BDCC2B00200060004018
:1023F000034890F85400002800D0012070470000E6
:10240000CC2B00200121B1EB507F01D1012070477E
:10241000002070470121B1EB507F01D101207047AE
:10242000002070470179064A01EB8101006802EB48
:10243000C1010622C0F80025022081F82200704761
:10244000442C002070B506460D4600791F4900EB6C
:10245000800001EBC00494F8220008B1082070BD90
:102460000020C4E90023A06084F8250084F824003B
:10247000A87B84F82700687B10B1284601F07AF920
:10248000296840F20C60890001F1A041C1F8000701
:102490006968890001F1A041C1F80007D5E900127F
:1024A0003068C0F80815C0F80C25A968C0F82415D4
:1024B000206828B13068297B000B40B2FFF793FEFB
:1024C000012084F82200002070BD0000442C002070
:1024D0003EB5074D2C68AD6800948DF8011001924F
:1024E00002958DF802300022694600F015F83EBDD5
:1024F000084102003EB500250095069C8DF80110AC
:1025000002958DF8023001920CB1202200E00022E9
:10251000694600F001F83EBD30B40379064C03EB88
:10252000830304EBC304006813460A4601462046B1
:1025300030BC01F0B3B90000442C00202DE9F0417B
:1025400005460079164F904607EB40140E46E07E94
:1025500010B10820BDE8F081707F20772846FEF793
:10256000BDF85FEA080060603169216003D0317F07
:102570002846FFF73BF9287907EB4010007F002839
:10258000286801D0082100E00421C0F800150020CF
:10259000E0752076A0750121E176A076DAE70000EB
:1025A000242C00202DE9F04105460079284E904664
:1025B00006EB40140F46207F18B10846FFF722FFB4
:1025C00080B1626800234FF404704FF4017172B15E
:1025D0002A7906EB4212127F002A2A6805D0C2F837
:1025E000080304E01020BDE8F081C2F80813E27D82
:1025F000B2B1227E7AB162685AB12A7906EB4212F0
:10260000127F1AB12968C1F8040302E02868C0F8F3
:1026100004131120E7E72761012384F8188005E0FF
:1026200084F817800020E76060762076287942469B
:1026300006EB40103946007F0028284603D0BDE84D
:10264000F04100F073B8BDE8F04100F01BB80000A5
:10265000242C002070B504460079094D05EB40108C
:10266000017F00290AD1807E002807D1204600F092
:10267000B7FD2179012005EB4111887670BD00007E
:10268000242C00202DE9F05F04460079264901EB57
:102690004015A87E184302D1204600F0A1FD6868CD
:1026A0000028206806D04FF40171C0F80413002000
:1026B000BDE8F09F4FF4A276314600F038FBB146FA
:1026C0004FF4927A4FF4847B5146206800F02AFB45
:1026D00006465946206800F025FB8046494620689A
:1026E00000F020FB074648EA07003043ECD056EAEA
:1026F000070007D12946206800F0FCFCE87D697ED0
:102700008842E1D80020E8750EB10320D0E70FB170
:102710000F20CDE7A97E01200029216801D00860A3
:10272000C5E74860C3E70000242C00202DE9F05FD6
:10273000894604464FF488759A46904600260068FC
:10274000294600F005FB4FF4A2773946206800F0D7
:10275000FFFA2068C0F83495C0F838852068BAF1CF
:10276000000F14D0D0F8001241F02001C0F8001280
:102770002179DFF8648008EB4110406850B120688F
:102780004FF40471C0F804133046BDE8F09F0121F6
:102790000160EDE7AA46B9464FF4927B51462068A6
:1027A00000F0D1FA07464946206800F0CCFA054609
:1027B0005946206800F0C7FA014647EA0500084379
:1027C000ECD02379002208EB4310C27501B1032637
:1027D000002DD9D00F26D7E7242C00202DE9F04773
:1027E000054600793F4E904606EB40140F46207F89
:1027F00018B10846FFF706FE30B1284600F074F81D
:1028000020B11120BDE8F0871020FBE784F8168086
:10281000A7600027A78228794FF0010806EB401433
:102820003E46207F0028286825D04FF490794946FD
:1028300000F08EFA4FF4AC7A5146286800F088FA1E
:102840002868A17DA268C0F84425C0F8481528680A
:10285000C0F808806068F0B94946286800F073FA4B
:1028600080465146286800F06EFA58EA0001F3D01D
:1028700058BBA7750FE04FF48E7A514600F057FA17
:102880002868C0F808802146286801F027F96168A7
:102890004FF4807089B13046B4E75146286800F0A3
:1028A00041FA10B9A08A4845F7D1A08A484505D019
:1028B0002146286801F012F900E08146A08AA17D36
:1028C0008842EAD3A08A484501D10F26D1E7514674
:1028D000286800F027FA0028F9D02868C0F80C8092
:1028E000C7E70000242C00200079044901EB4010C8
:1028F000807D002800D0012070470000242C00209B
:1029000070B541EA4201DDE904564FF0A04441EAC6
:10291000830141EA052104EB800041EA0641C0F849
:10292000001770BD70B541EA4201DDE904564FF071
:10293000A04441EA830141EA052104EB800041EA19
:102940000641C0F8001770BD70B541EA4201DDE9EB
:1029500004564FF0A04441EA830141EA052104EB0B
:10296000800041EA0641C0F8001770BD1CB5002286
:102970000B46009211460192FFF7E6FF1CBD1CB505
:10298000002100910B46012201911146FFF7DCFF67
:102990001CBD4FF0A04202EB8000D0F8002722F4CB
:1029A0004032C0F80027D0F8002742EA0141C0F8C1
:1029B000001770474FF0A04202EB8000D0F80027CC
:1029C00022F44032C0F80027D0F8002742EA014143
:1029D000C0F8001770474FF0A04201218140C2F8B3
:1029E0000815704701224FF0A043824011B1C3F88F
:1029F00008257047C3F80C257047000018B5084B30
:102A00006C4601441B68009306E000BF54F8203078
:102A1000D3F81035401C08C28142F7D818BD000019
:102A200004410200034908B5084400210160006820
:102A3000009008BD0060004002494058012800D0C5
:102A4000002070470060004000487047752A02006F
:102A500070B5074D0446287810B16878844204D0D8
:102A6000FCF7E6FD012028706C70002070BD0000AE
:102A7000942600202DE9F04FC1B017464FF0000218
:102A8000080040924D994B9A1E4602EB010A01D074
:102A90000A2100E0002188466D46AEB9294640AAC9
:102AA00000F04EFE00286FD03846FCF71FFCC2280D
:102AB00000D9C22004464098224628443946FCF7F3
:102AC000F1FB4098204440904FF0200B409901EBDF
:102AD000080231320DEB01040DEB0205002002E08B
:102AE00004F801BB401C4045FAD30027564508D3E3
:102AF00004F801BB04F801BB04F801BB05F801BBF5
:102B00002DE04B98864202D24A98805D02E0311A4D
:102B10004C98405C012181460246880022FA00F070
:102B200000F00F00092801D9373000E03030C1F142
:102B3000010C234604F80C00491EEED29C1C04F83C
:102B400001BBFCF7ABFB016811F8090010F03E0F68
:102B500001D0484600E02E2005F8010B761C7F1CB2
:102B6000102FC3D30D2028700A20687084F800B09D
:102B70004099684641444331409100F079FB18B1D7
:102B8000002040905645A1D341B03046BDE8F08FBB
:102B90002DE9F041C6B090460846002505AE1C461A
:102BA0004C9F314645AA459500F0CAFD002835D016
:102BB000072F27D2DFE807F004121B35424F5D00D4
:102BC0004046FCF793FB459905460844FF2819D871
:102BD00070182A464146FCF765FB13E045982368C8
:102BE000C0F5807130444246FCF7AEFF09E06068F2
:102BF000009045982368C0F5807130444246FCF748
:102C0000A3FF0546294645A8FEF7ACFB459978B3D6
:102C1000B1F5807F3ED805A800F02AFB46B0BDE89C
:102C2000F081D4E90101CDE9000145982368C0F5A0
:102C3000807130444246FCF787FFE2E7201D07C859
:102C40008DE8070045982368C0F5807130444246FE
:102C5000FCF77AFFD5E7201D0FC88DE80F004598D7
:102C60002368C0F5807130444246FCF76DFFC8E729
:102C700010E004F1080001AD0FC885E80F0060689E
:102C8000009045982368C0F5807130444246FCF7B7
:102C90005BFFB6E70020C1E700487047912B0200B8
:102CA00038B50D460093034B00215C6913462A4654
:102CB000A04738BD2C2E002000231A46FFF7F0BF96
:102CC00008B5012300926A46FFF7EAFF08BD1CB56C
:102CD000CDE9002302236A46FFF7E2FF1CBD000096
:102CE000014AC2E9050170472C2E002070B5012071
:102CF000FFF7AEFE040008D1FFF7CEFF0546FFF751
:102D0000A3FE01462846FFF7EBFF204670BD405862
:102D1000002800D00120704708B5002242504058DA
:102D2000009008BD4058002800D00120704708B529
:102D3000002242504058009008BDD0F804030840DB
:102D400000D0012070474058002800D00120704773
:102D500008B5002242504058009008BD2DE9F041CE
:102D600017460E4600250FE0705DFDF75BFC040082
:102D700009D0112CF8D002460AA10120FFF7A0FFCC
:102D80002046FDF715FB6D1CBD42EDD3F01910F880
:102D9000010C0D2804D10A20FDF744FC1128FAD0BB
:102DA000BDE8F0814150503A4552524F523A466187
:102DB000696C656420726563656976696E67204E2B
:102DC0005553206D6573736167652E204572726F70
:102DD0007220307825782E200D0A000010B550B1F1
:102DE00003280CD10220FEF783F9002807D0BDE8A4
:102DF0001040FDF7DDBABDE8104000F0DBBA10BDB1
:102E000030B53E4D04460188688889B0212933D009
:102E10000CDC01294BD0102914D011291CD0132906
:102E200034D100231A4685217FDF35E03B293AD093
:102E3000512940D052292BD0562927D1A0881321BF
:102E400076DF29E00720FEF753F908B1FDF7B0FA65
:102E5000A08868802AA109E00020FEF749F908B19E
:102E6000FDF7A6FA4FF6FF7068802BA109B003208A
:102E7000BDE83040FFF720BF002000900190A088FF
:102E8000002269468FDF34E0FDF792FA09B030BDC9
:102E900000231A461946A9DF0028F7D009B0BDE87B
:102EA0003040FDF785BAA088132176DFF4E7A088CB
:102EB000002166DFF0E71022A11D04A8FCF7F2F95B
:102EC0009DF810100029E1D09DF81800042803D0C7
:102ED000062801D00528D9D102290DD05FF00100C4
:102EE0008DF800004FF4C170ADF80400A088694669
:102EF000A8DF0028C8D1C9E70220F1E7F8250020A3
:102F00004150503A494E464F3A436F6E6E65637476
:102F100065640D0A000000004150503A494E464F8A
:102F20003A446973636F6E6E65637465640D0A007D
:102F30000078002807D104483B21408876DF00282C
:102F400001D0FDF735BA7047F82500207CB58E8892
:102F5000027900EBC605AC1D2A73C97B012902D09A
:102F6000022904D101E0008800E040882080218807
:102F7000608881420AD930469EDF02004FF001008E
:102F80001DD0112A1DD01049FFF79AFEA079E179D2
:102F9000884213D9002000900190287BADF80000F2
:102FA000287BADF802000022694630468FDF03001F
:102FB00004D0324605490120FFF789FE7CBD6071CF
:102FC000E4E72071E2E70000C4410200D8420200B9
:102FD0007CB506468D88C88806EBC504A41D172855
:102FE00000D217202188814200D808466080002046
:102FF000207121882846ADDF020003D00C49012052
:10300000FFF75EFE6079002810D1B06900280DD06E
:103010000849D1E90201CDE90001ADF8025060880C
:10302000ADF80400B2696946304690477CBD0000A7
:1030300020420200DC4002000449084490F93000BC
:10304000082801DB0120704700207047CC2B0020AE
:103050000449084490F93000082801D20120704743
:1030600000207047CC2B00201CB5104C0020207095
:103070000FA10123096801AACDE9000176210D48BD
:10308000FFF738FA08B1FDF793F920780028FCD053
:10309000064A08230A3276210648FFF719FA08B1D2
:1030A000FDF786F920780028FCD01CBDF82500200B
:1030B000F70000007440020070B5012670044FF064
:1030C000E0210025C1F88001084C4010C4F84803F5
:1030D000C4F8080366602F20FEF7FEFFA660044CCC
:1030E0002F20A560FEF7F8FFA57070BD001001400D
:1030F0006C26002070B50546C87D0C4600284FF4AC
:10310000847128460AD0FFF712FED5F81805627EB2
:10311000E1688854607E401C607670BDFFF707FE52
:10312000D5F8180570BD30B58FB005461C2168462E
:10313000FCF7D1F800249DF80000019440F00C0049
:103140008DF80000039404940594069428788DF873
:1031500036000220ADF834000C949DF830001421A4
:1031600020F00F00401C20F0F00010308DF83000EF
:103170009DF8310020F00F00401C20F0F0001030CE
:103180008DF831009DF8320020F00600801C20F000
:10319000180040F001008DF8320007A8FCF79BF8FA
:1031A0000DA807900CA808900120ADF824009B20E2
:1031B000ADF82640ADF82800688805F10C0307AA91
:1031C0006946A2DF0FB030BD1FB501238DF8003076
:1031D0008DF808100192D0E90012684690471FBD93
:1031E00010B5044600684FF49271FFF7A0FD4FF44C
:1031F00084712068FFF79BFD20680121016010BDEC
:1032000010B50446FCF7C8FC40B1002C09DA04F004
:103210000F0000F1E02090F8140D06E042F20100EA
:1032200010BD04F1E02090F800044109082914D2EF
:1032300099B1012911D004290FD005290DD00B48CF
:103240000122816861B1610950F8213004F01F0446
:10325000A240134340F8213005E042F2020010BDC5
:103260002046FCF780F9002010BD0000B82D00209A
:103270002DE9F041002507464FF001080C460A26CB
:10328000791922460020FCF7DDF90544241A08B913
:10329000761E01D0002CF3D14046BDE8F08100003D
:1032A0002DE9F0410746806A14468846C8B30025D8
:1032B00031E000BFB96A05EB450001EB8006B0883C
:1032C000801CFE2802D90C20BDE8F0812288401C19
:1032D00008F8020020881622401C80B2208008F8DE
:1032E00000202088401C80B2208000EB080130883C
:1032F00000F009FE2188084480B22080B28842B1E3
:10330000B16871B14044FBF7CDFF2088B188084413
:1033100020806D1CEDB297F82C00A842CAD800207E
:10332000D2E7FFE70720CFE710B50F490F4C0A8A15
:1033300042818A8A8281097891B1A17981B9217A01
:1033400071B102210172084904202031C870064879
:1033500000212030FDF71EFA002804D1052000E0EE
:103360000320A070002010BDC82A002024260020C1
:1033700010B50E490E4C0A8B42818A8B82810A78E5
:10338000042182B1A27972B9227A62B10222027258
:1033900006482030C1700021FDF7FCF9002804D157
:1033A0000620A07000E0A170002010BDC82A0020F7
:1033B0002426002010B50020FDF79AFE08B1FCF786
:1033C000F7FFFDF7F7FD08B1FCF7F2FF32DF002849
:1033D00003D0BDE81040FCF7EBBF10BD08B5034AB1
:1033E000009200210260084608BD0000F825002078
:1033F00018B103490861002070470E207047000093
:103400009826002038B5054600680090684660DFC1
:1034100004462868009A90420FD00CA10220FFF7C2
:103420004FFC4FF08050D0F80C010099800200F161
:103430000050421A12A1022003E024B122461DA12D
:103440000120FFF73DFC204638BD00005344483AB8
:103450005741524E494E473A52414D207374617262
:10346000742073686F756C642062652061646A758E
:103470007374656420746F20307825782E0D0A00EF
:103480005344483A5741524E494E473A52414D20D3
:1034900073697A652073686F756C6420626520615A
:1034A000646A757374656420746F20307825782E93
:1034B0000D0A00005344483A4552524F523A736441
:1034C0005F626C655F656E61626C6528292072655C
:1034D0007475726E656420756E6578706563746569
:1034E000642076616C75653A20307825782E0D0A57
:1034F00000000000FCF72CBF2DE9F041074619B190
:1035000088074FF0000402D00720BDE8F081114D7C
:103510004FF0E0200126E9606A806B60D0F800017E
:1035200010F0010F03D034460020FCF706F80A49DA
:10353000384610DF070005D014B10020FCF713F85F
:103540003846E2E72E70FEF731FEBDE8F041162066
:10355000FFF756BE98260020F53402000148007897
:1035600070470000982600202DE9F84F1D4C0025DB
:103570006846D4E901A6FEF74BF8002738B30023CC
:10358000009A61681CE0D1F800C00846944503D950
:10359000ACEB02020A6015E0A2EB0C026344076088
:1035A000D0F80CC0C1698146BCF1000F08D006EB11
:1035B000030828F07F48C0E9018CC9F81C50054673
:1035C0000029E0D128466160FEF730FA03E0284682
:1035D000FEF72CFA10B15046FDF720FFE770BDE86A
:1035E000F88F00006C2600200D4B10B5596831B1E2
:1035F00002680C68A24204D8A21A0A60C16158602D
:1036000010BD0B4603E00B46C969121B21B10C68C3
:103610009442F8D3A41A0C600260C161D86110BD55
:103620006C2600202DE9F041144E77683D462C466B
:1036300003E0844204D02546E469002CF9D11BE064
:10364000D4B1A5420BD1F869706040B90C49012092
:1036500088600021B160F0702F20FEF73DFD2168E9
:10366000E069E86110B10268114401607068874246
:1036700002D00120BDE8F0810020FBE76C2600208D
:10368000001001407CB5064600240D468DF8004030
:103690006846FCF7E5FF01A800F06AFC70B1057010
:1036A000094946609DF8040048709DF80000FCF749
:1036B000FBFF1420FBF762FF20467CBD04249DF82D
:1036C0000000FCF7F1FFF7E78C2C00202DE9F0411A
:1036D000194D6C68002C2CD0184800270068A96888
:1036E000B846401A20F07F462068B0420CD82146E8
:1036F000361A0744E469087C20B181F81080886993
:1037000049698847002CEFD129786878814206D131
:10371000401CC0B26870022801D185F801800648BB
:1037200069780C3040F82170BDE8F0411420FBF7B7
:1037300025BFBDE8F08100006C2600200415014083
:1037400010B5144602004FF001000CD00846136873
:1037500006A24FF48071FCF7F7F901462046BDE858
:103760001040FDF7FFBD0021216010BD5B25303802
:10377000645D00002DE9F041044640F20C602168D0
:10378000890001F1A041C1F800076168890001F1D9
:10379000A041C1F800072068FFF71DF96068FFF736
:1037A0001AF9216840F20D60890001F1A041C1F8C9
:1037B00000076168890001F1A041C1F800070420F9
:1037C000FEF744FC00274FF0A04601252179D6F8EA
:1037D0001005C84010F0010F02D0002F1DD010E0DE
:1037E000217805FA01F0C6F80C050420FEF72EFC3E
:1037F0002068FFF7F0F80420FEF728FC7F1C092F53
:10380000E4DB20798540C6F80C550420FEF71EFC49
:103810006068BDE8F041FFF7DEB8BDE8F081000068
:1038200010B5017800290CD10079012805D105488F
:1038300005A102780320FFF743FA024901200A3963
:10384000087010BD022600204150503A494E464FA4
:103850003A4669727374204461746120506F696ED6
:10386000743A202564200D0A000000001FB5094BA2
:103870000FCB8DE80F0007480023074A6946203820
:10388000FEF7E0FD08B1FCF793FD02482038FEF793
:10389000C9FD1FBD94400200213802002DE9F05FF0
:1038A00006461F4615460C464FF0000A4FF0080B1F
:1038B0004FF482795068FEF7ADFD00287ED04FF0BE
:1038C000FF30C4F8080396F8240028B1B068C4F8A3
:1038D00004031120BDE8F09F780703D4F80601D453
:1038E000012000E0002086F8240095E8070006F19A
:1038F0000C0383E80700C7F3001086F825006878FA
:10390000C4F888054FF482712046FFF705FA4FF49A
:1039100092712046FFF700FAF8074FF0010800D037
:103920004046C4F85005B80701D5404600E00020E5
:10393000C4F84005287800286CD001287DD00228E2
:103940004ED0032814D04FF0070A380704D4287843
:10395000032801D044F80B80306800286ED0780727
:1039600002D54FF40070B060B068C4F80403B0E052
:10397000A868FEF74FFD08B34FF48070C4F800024A
:10398000A9786868C4F84405C4F848154FF4A871CC
:103990002046FFF7C1F94FF4B0712046FFF7BCF99C
:1039A0004FF4A4712046FFF7B7F9C4F82080C4F89B
:1039B000088000BF4FF4A871204600E028E0FFF720
:1039C000A6F90028F6D04FF4A8712046FFF7A4F915
:1039D000E878A968C4F84415C4F848053E4815E0DD
:1039E000A8786968C4F84415C4F84805A868FEF7C3
:1039F00011FD68B1E878A968C4F83415C4F8380531
:103A00004FF48450C4F8000240F20220B0609CE7FA
:103A100010205FE7A8786968C4F84415C4F8480521
:103A2000B8060FD54FF48070C4F800022A48B06081
:103A30004FF4A4794946204601E00CE01BE0FFF773
:103A40006BF905E04FF40070C4F80002801CB06010
:103A5000C4F8208079E7A8786968C4F83415C4F8F8
:103A600038054FF48050C4F8000240F20220B060E4
:103A70004FF0000BECE745464FF482774FF4927815
:103A80000BE041462046FFF742F930B1414620465F
:103A9000FFF742F925626561B94649462046FFF7BE
:103AA00036F90028EDD0D4F8C404C4F8C4040021C9
:103AB00086F8241068B10321C20701D04FF40241F7
:103AC000820701D548F20121400701D548F20221C1
:103AD0008A465046FEE600000002040070B50C461F
:103AE00005464FF48E71FFF722F9A18AA068415C68
:103AF000A08A401CA082C5F81C1570BD30B58FB0DF
:103B00000024054607949DF81C001C2120F00F009E
:103B1000401C20F0F00010308DF81C009DF81D00B6
:103B200020F00F00401C20F0F00010308DF81D0038
:103B30009DF81E0020F00600801C8DF81E006846CF
:103B4000FBF7C9FB9DF80000019440F010008DF8D0
:103B5000000007A8CDE904400394069428788DF866
:103B60003A000320ADF838000D949DF8340014217C
:103B700020F00F00401C20F0F00010308DF83400D1
:103B80009DF8350020F00F00401C20F0F0001030B0
:103B90008DF835009DF8360020F00600801C20F0DE
:103BA000180040F001008DF8360008A8FBF793FBE1
:103BB0000EA808900DA809900120ADF828009B20C0
:103BC000ADF82A40ADF82C0068882B1D08AA69467C
:103BD000A2DF0FB030BD1FB500228DF800208DF898
:103BE0000810816801918275D0E9001268469047FB
:103BF0001FBD000070B5017841B1012901D0022933
:103C000025D14068BDE87040FCF7D2BB114C104D87
:103C100060782844FCF792FC6078401CC0B22918F8
:103C2000607011F8011C0A2902D0A18888420ED3C5
:103C30000749627801F52770FDF75CF8082804D081
:103C40001128F5D008B1FCF7B3FB0020607070BDFF
:103C500088270020F82500207CB50178244D81B309
:103C600001290BD002292BD18DF80010C068691CE6
:103C700001900122C81DFEF795FC2EE040680178F6
:103C80001C48FCF7BBFB1B4C012618B18DF80060EB
:103C9000019006E0A068E168814205D000208DF81F
:103CA0000000696868468847A068E168081AA1882A
:103CB000884207D80E490122491CC81DFEF772FC34
:103CC0007CBD01E0AE70FBE70A4809491030FCF703
:103CD0007AFB30B103208DF8000069686846884798
:103CE000EEE70349012201F10800FEF777FDE7E75F
:103CF00080260020982D00202DE9FF470C46054620
:103D00004FF40071FFF719F801274FF401780026EE
:103D100018B34FF4927949462846FFF703F8E0B10B
:103D200049462846FFF703F8C5F80883A07E00B986
:103D30006F6002208DF80000D5F88004C5F880047B
:103D40000390E07D8DF80800E0680190E675267626
:103D5000D4E900126846904727E004212846FEF780
:103D6000ECFF10B34FF484712846FEF7DBFFE0B19F
:103D700021462846FFF7BEF9E07D617E884214D1D6
:103D8000207E38B1617EE268E0752069E0602676C9
:103D9000667607E0A07E00B96F60C5F80883E67517
:103DA000617EE2682046FFF70FFA4FF48E784146B5
:103DB0002846FEF7B7FF88B1A08AA17D884204D2C9
:103DC00021462846FFF78AFE08E041462846FEF7CE
:103DD000AEFFA17D11B12046FFF7FDFE4FF4A278A2
:103DE00041462846FEF79EFF002812D0414628464D
:103DF000FEF79DFFA07E00B12F60E07D002808D077
:103E0000E675617EE26804B02046BDE8F047FFF742
:103E1000DBB9BDE8FF872DE9FF410C464FF49277EF
:103E200005463946FEF78FFF0026C0B139462846C1
:103E3000FEF78EFF02208DF80000D5F88004C5F84B
:103E400080040390D5F83C058DF80800E0680190E7
:103E5000E6752676D4E900126846904724E04FF4D0
:103E6000887739462846FEF76EFFE8B1394628467E
:103E7000FEF76EFFD5F83C05C1B2E07D884213D154
:103E8000207E60B1E268D5F8000220F02000C5F87D
:103E90000002207EE0752069E060267601E0E6758C
:103EA000E2682046FFF790F94FF4A277394628469A
:103EB000FEF749FF68B139462846FEF749FFE07D25
:103EC00038B1E675D5F83C05E268C1B22046FFF787
:103ED0007BF94FF4907631462846FEF734FF0028F0
:103EE0000FD031462846FEF733FFA07D002808D0CA
:103EF000D5F84C0504B0C1B22046BDE8F041FFF74B
:103F00006ABEBDE8FF810870000A48700220704751
:103F100038B515494888A0F57F42FF3A23D04A7842
:103F2000124C521CD2B24A70237B93420AD3091D11
:103F300075DF002817D0A169002914D001B0BDE8B1
:103F40003040084700254D70217C29B13B2176DFA8
:103F500010B1A16901B188476169002903D08DF8CA
:103F600000506846884738BD442600209C2B00201E
:103F70000A494A788B78521CD2B2934200D100226F
:103F80000B78934201D1002070470270487800EB13
:103F9000400001EBC000001D704700008C2C002089
:103FA0002DE9FC411646DDE90854CDE900541F46D1
:103FB0008046022200F00CF8002807D1CDE9005419
:103FC0003B4610223146404600F002F8BDE8FC8135
:103FD0002DE9FC5F0026DDE90C4B994692468E46A2
:103FE00080462788354630E0D8F80400002200EBF0
:103FF000850069460068019001A864DF002830D17F
:104000009DF8000050451FD10EB1002100E00221B3
:10401000228808441118594522D846B9521C90B23A
:10402000208009F800E02088401C2080012621889B
:1040300001A801EB0902694664DF002811D120883C
:104040009DF80010084420806D1CB8F80000A842BC
:10405000CADC56B12088C01B401E80B2FF2802D99E
:104060000C20BDE8FC9F09F807000020F9E70000DC
:1040700001000007003000400001000008000000BF
:10408000060000000500000007000000000000001E
:1040900000E0D7011B0000001A000000000098019A
:1040A00002000000111213140D0E0F105C2A0020E4
:1040B0007C2A0020A82A00200D000300D50F020052
:1040C0000E000300D50F02000F000300D50F020001
:1040D00010000300D50F02007C2B0020770A00009F
:1040E00000000000770A0000000000007ADA0000FB
:1040F000000000009ECADC240EE5A9E093F3A3B5FE
:104100000000406E000000500100000000000000B0
:10411000000000006C2C002003000000FFFFFFFFE8
:10412000FFFFFFFFFFFFFFFFFFFFFFFF000000009B
:10413000000000000000D6010701000000404040E0
:10414000404040404040414141414140404040406A
:104150004040404040404040404040404005020216
:1041600002020202020202020202020202202020D5
:104170002020202020202002020202020202909031
:10418000909090901010101010101010101010102F
:104190001010101010101010020202020202888883
:1041A000888888880808080808080808080808088F
:1041B0000808080808080808020202024000000077
:1041C0003D4102006E72665F626C655F6761747488
:1041D0003A4552524F523A73645F626C655F676151
:1041E0007474635F65786368616E67655F6D74752D
:1041F0005F726571756573742829207265747572B4
:104200006E656420756E657870656374656420768C
:10421000616C756520307825782E0D0A000000004D
:104220006E72665F626C655F676174743A45525284
:104230004F523A73645F626C655F67617474735F59
:1042400065786368616E67655F6D74755F726570D0
:104250006C7928292072657475726E656420756E9C
:1042600065787065637465642076616C756520306F
:104270007825782E0D0A00006E72665F626C655FAD
:10428000676174743A4552524F523A73645F626C7C
:10429000655F6761705F646174615F6C656E6774B0
:1042A000685F757064617465282920287265706C78
:1042B00079292072657475726E656420756E6578F3
:1042C0007065637465642076616C7565203078254F
:1042D000782E0D0A000000006E72665F626C655FEA
:1042E000676174743A4552524F523A73645F626C1C
:1042F000655F6761705F646174615F6C656E677450
:10430000685F75706461746528292028726571750D
:1043100065737429206F6E20636F6E6E65637469B8
:104320006F6E20307825782072657475726E6564C2
:1043300020756E65787065637465642076616C7550
:104340006520307825782E0D0A0000006C430200AD
:10435000F8250020B800000078FB0100244402008A
:10436000B0260020202A000088FB01000000FFFF8B
:10437000140001000200424153450000000000000B
:10438000000000000000000000000000000000002D
:10439000000000000000000000000000000000001D
:1043A000000000000000000000000000000000000D
:1043B00000000000000000000000000000000000FD
:1043C00000000000000000000000000000000000ED
:1043D00000000000000000000000000000000000DD
:1043E00000000000000000000000000000000000CD
:1043F000000000000000000000000000002000405D
:1044000000000000000000000000000000000000AC
:10441000000000000000000000000000000000009C
:044420000090D00335
:040000050001F20103
:00000001FF
