:020000040001F9
:10F00000384E002015F201001DF201001FF2010030
:10F0100021F2010023F2010025F2010000000000AE
:10F0200000000000000000000000000027F20100C6
:10F0300029F20100000000002BF201002DF2010076
:10F040007DF601002FF201004DFA0100F9F60100F2
:10F050002FF201002FF2010099F401002FF20100BC
:10F060002FF201002FF201002FF201002FF2010018
:10F070002FF201002FF201002FF201002FF2010008
:10F080002FF20100D5F601002FF201002FF201004E
:10F0900009F701002FF201000DF701002FF2010026
:10F0A0002FF201002FF201002FF201002FF20100D8
:10F0B0002FF201002FF2010000000000000000000C
:10F0C0002FF201002FF201002FF201002FF20100B8
:10F0D0002FF201002FF201002FF2010000000000CA
:10F0E0000000000000000000000000000000000020
:10F0F0000000000000000000000000000000000010
:10F1000000000000000000000000000000000000FF
:10F1100000000000000000000000000000000000EF
:10F1200000000000000000000000000000000000DF
:10F1300000000000000000000000000000000000CF
:10F1400000000000000000000000000000000000BF
:10F1500000000000000000000000000000000000AF
:10F16000000000000000000000000000000000009F
:10F17000000000000000000000000000000000008F
:10F18000000000000000000000000000000000007F
:10F19000000000000000000000000000000000006F
:10F1A000000000000000000000000000000000005F
:10F1B000000000000000000000000000000000004F
:10F1C000000000000000000000000000000000003F
:10F1D000000000000000000000000000000000002F
:10F1E000000000000000000000000000000000001F
:10F1F000000000000000000000000000000000000F
:10F20000DFF80CD000F08CF80048004761160200CF
:10F21000384E00200648804706480047FEE7FEE7D4
:10F22000FEE7FEE7FEE7FEE7FEE7FEE7FEE7FEE7B6
:10F2300031F7010001F201002DE9F05F05460020E1
:10F2400092469B4688460646814640241BE0284657
:10F2500041464746224600F053F853465A46C01AE4
:10F26000914110D311461846224600F03AF82D1A63
:10F2700067EB01084F4622460120002100F031F8DB
:10F2800017EB00094E41201EA4F10104DFDC4846C3
:10F2900031462A464346BDE8F09F40EA01039B07FA
:10F2A00003D009E008C9121F08C0042AFAD203E0FB
:10F2B00011F8013B00F8013B521EF9D27047D2B25F
:10F2C00001E000F8012B491EFBD270470022F6E74F
:10F2D00010B513460A4604461946FFF7F0FF2046CC
:10F2E00010BD202A04DB203A00FA02F1002070470A
:10F2F0009140C2F1200320FA03F319439040704774
:10F30000202A04DB203A21FA02F00021704721FA7A
:10F3100002F3D040C2F120029140084319467047E1
:10F32000064C074D06E0E06840F0010394E8070052
:10F3300098471034AC42F6D3FFF766FF2C38020032
:10F340004C380200FEB51BA00423006802901AA0EE
:10F3500002AA006801902B208DF8050020208DF86E
:10F3600006007621154802F059FD0024144E0125AF
:10F3700050B93570032301AA76211048009402F099
:10F380005FFD08B100F044FF042302AA77210B4877
:10F3900002F044FD00280BD17570032301AA7721E8
:10F3A0000648009402F04CFD002801D000F030FF28
:10F3B000FEBD000001010101F4000000E43502007F
:10F3C000F82500207CB505460020009001903048CB
:10F3D0000178284603F052F92D49082214312D48AE
:10F3E00001F070FB2A48801C0178284603F046F99A
:10F3F000274908221431274801F064FB2448001DE6
:10F400000178284603F03AF92149082214312148AD
:10F4100001F058FB1E48C01F0178284603F02EF962
:10F420001B4C143420788DF80000A4F10E000178F4
:10F43000284603F023F920788DF8010060788DF8D4
:10F440000200A4F11A000178284603F017F9207889
:10F450008DF80300A4F10C000178284603F00EF9A2
:10F4600020788DF8040060788DF80500A4F10A007A
:10F470000178284603F002F920788DF806006078BC
:10F480008DF8070008226946024801F01BFB7CBD8D
:10F4900004260020342A00202DE9F04700268CB0F5
:10F4A000DFF86091B0464FF4807501243746069628
:10F4B000284602F043FF38B1D9F80403204203D0B4
:10F4C000284602F031FF26432D1D64007F1CADB29B
:10F4D000082FEDD34FF4BE74204602F02FFF48B141
:10F4E000204602F021FF46F0004606AA0121002036
:10F4F00002F006FF444D16F0FF0F15D0012700243F
:10F5000037420DD009EB8401D1F81005D1F8101560
:10F51000C0F3042055F82420C1F3014102B1904703
:10F520007F00641C082CEBD3002E67DA4FF0FF300D
:10F53000CDE9088000263446281910F8507F90F94C
:10F54000000027F0C008401C44D009A9404602F042
:10F55000F3F958B34FEA9719404601F061FD55F8A9
:10F5600020701FB1B9F1030F03D00FE0B9F1030F01
:10F5700030D108A84FEAD80208F00703815C4FF0A9
:10F58000010C0CFA03FC41EA0C0181544FF0A0413C
:10F5900001EB8800D0F8000706A9C0F3014A4046F5
:10F5A00002F0CAF918B1BAF1020F03D012E0BAF1B1
:10F5B000030F0FD1B9F1030F08D1BAF1020F1BD01D
:10F5C0000221404602F078FE761CF6B217B1494699
:10F5D0004046B847641C042CAED3002E0ED06A46B9
:10F5E0000121002002F08CFE06990098884205D087
:10F5F0000690089809909DE70321E2E70CB0BDE86A
:10F60000F087000000600040DC2B002000F01F02AB
:10F61000012191404009800000F1E020C0F88012F3
:10F62000704700F01F02012191404009800000F165
:10F63000E020C0F88011704700F01F0201219140C6
:10F640004009800000F1E020C0F80011704700F090
:10F650001F02012191404009800000F1E020C0F824
:10F660000011704700F01F02012191404009800005
:10F6700000F1E020C0F80012704700002DE9F041D1
:10F680004FF48077384602F021FA0124104EA50786
:10F6900048B1384602F021FA0120C5F80803747019
:10F6A000002001F0C5FC4FF48277384602F00EFAD4
:10F6B00000280BD0384602F010FA0220C5F80803E3
:10F6C000B470BDE8F041012001F0B2BCBDE8F081AA
:10F6D000C82B002007480021C0F84011C0F8441191
:10F6E000C0F84811C0F84C11C0F80011C0F804115E
:10F6F00003F0E6BA001001400149024801F05ABE89
:10F70000542C00200030004003F028BA074810B500
:10F71000406830B18047002807D0BDE8104000F0B5
:10F7200077BDBDE8104001F0CDBD10BDA82600207A
:10F73000F0B5B5480023021D0178101D01254FF0DA
:10F74000805406290BD11678360708D10678C6F3FF
:10F750000316032E06D0042E04D0052E02D006294F
:10F7600007D00EE0B4F82463A84FC6F304263E6029
:10F7700002E01678360704D10678C6F30316032E86
:10F7800002D0062904D00FE0A24FA14E7E670EE002
:10F790001678360708D10678C6F30316032E06D06E
:10F7A000042E04D0052E02D0062907D00EE0D4F88E
:10F7B0004462994FC6F342363E6002E0167836073F
:10F7C00004D10678C6F30316032E02D0062906D00C
:10F7D00011E0924E376827F0807737600EE0167898
:10F7E000360708D10678C6F30316032E06D0042E7A
:10F7F00004D0052E02D006290AD011E04FF0804631
:10F80000C6F80C31C6F81031834E361F336002E063
:10F810001678360704D10678C6F30316032E02D0F5
:10F82000062905D00CE07C4F032664373E600AE0D1
:10F830001678360704D10678C6F30316032E02D0D5
:10F8400006290DD014E0764F05263E60744E7836BA
:10F850003560734E083633603F263F1D3E6002E040
:10F860001678360704D10678C6F30316052E02D0A3
:10F87000062957D062E06B4E36686B4F3E60694E8A
:10F88000361D36683F1D3E60664E083636683F1DA1
:10F890003E60644E0C3636683F1D3E60614E103649
:10F8A00036683F1D3E605F4E143636683F1D3E6031
:10F8B0005C4E183636685C4F20373E60594E1C3619
:10F8C00036683F1D3E60574E203636683F1D3E600D
:10F8D000544E243636683F1D3E60524E28363668F8
:10F8E0003F1D3E604F4E2C3636683F1D3E604D4EEC
:10F8F000303636684C4F40373E604A4E34363668B4
:10F900003F1D3E60474E383636683F1D3E60454ECF
:10F910003C3636683F1D3E60424E403636683F1DDD
:10F920003E6002E01678360708D10678C6F3031663
:10F93000032E06D0042E04D0052E02D0062907D0AF
:10F9400019E0D4F85812394A01F04F01116002E071
:10F95000117809070FD10078C0F30310032803D0F2
:10F96000042801D0052806D131480168C90702D012
:10F970006FF001010160D4F83001062808D1D4F8F5
:10F980003401062804D12B48016841F480610160EC
:10F9900022487438016841F470010160BFF34F8F51
:10F9A000BFF36F8F4FF01021D1F80002002803DB66
:10F9B000D1F80402002822DA1F4A15601F480468A3
:10F9C000002CFCD01524C1F800420568002DFCD0A5
:10F9D000C1F8044201680029FCD0136001680029C5
:10F9E000FCD0BFF34F8F0D48F0380168144A01F482
:10F9F000E06111430160BFF34F8F00BFFDE7124983
:10FA000010480860F0BD0000E00F00F040350140F4
:10FA10000DF0ADBA00C007403C050040FCED00E031
:10FA2000105600400404001020C50040E40E0040C1
:10FA3000000400403C17004004E5014000E40140A0
:10FA40000400FA050090D003BC2600200448017F82
:10FA500004480029024901D003F095BC03F004BC1E
:10FA6000342C0020002000400FB4054B10B503A932
:10FA7000044A029800F02AF810BC5DF814FB00005C
:10FA800053120200A426002002E008C8121F08C179
:10FA9000002AFAD170477047002001E001C1121F0F
:10FAA000002AFBD1704700000121202803DA8140A1
:10FAB0000548014003E0402802DA2038814009B1BE
:10FAC0000120704700207047FC06FFBD2DE9FF4F65
:10FAD0008DB00F460546002606E025280BD0DDE94F
:10FAE0000F1290476D1C761C28780028F5D111B0B4
:10FAF0003046BDE8F08F0024A246A1460122EC4921
:10FB000000E0044315F8013F203B02FA03F00842ED
:10FB1000F7D128782A2810D06FF02F022878A0F18A
:10FB20003001092914D80AEB8A0102EB410144F0A3
:10FB3000020400EB010A6D1CF0E701CF5FEA000A46
:10FB400003D544F40054CAF1000A44F002046D1CC9
:10FB500028782E2817D115F8010F44F004042A281C
:10FB60000ED06FF02F022878A0F1300109290AD8B1
:10FB700009EB890102EB410100EB01096D1CF2E781
:10FB800057F8049B6D1C28786C280FD006DC4C2895
:10FB900017D068280DD06A2814D104E0742810D03A
:10FBA0007A280FD10DE044F400140AE044F48014E4
:10FBB00001E044F440146978814202D104F58014D4
:10FBC0006D1C6D1C2A786E2A1FD00CDC632A31D084
:10FBD00004DC002A8BD0582A11D1A3E0642A68D013
:10FBE000692A0CD165E0732A2ED004DC6F2A73D009
:10FBF000702A04D19BE0752A6FD0782A6ED0104607
:10FC0000DDE90F129047761C50E1C4F30250022840
:10FC100006D0032809D0042801CF09D0066045E1A9
:10FC200001CFF117C0E9006140E101CF06803DE15D
:10FC300006703BE117F8040B8DF8000000208DF8EA
:10FC40000100EB46012003E057F804BB4FF0FF3002
:10FC500061074FF0000102D40DE008F10101884670
:10FC600049450FDA8045F8DB1BF808100029F4D16C
:10FC700008E008F1010188468142FADB1BF8081010
:10FC80000029F6D1DDE90F23AAEB080081462146C1
:10FC900000F036F9304400EB080604E0DDE90F120D
:10FCA0001BF8010B9047B8F10108F7D221464846EE
:10FCB000F7E00A21C4F302534FF0000B0891022B26
:10FCC00004D001CFC117032B09D00AE0FF1D27F094
:10FCD0000707F7E8020108E032E01FE020E000B289
:10FCE000C117042B01D140B2C117031E71F10003EB
:10FCF00007DA4FF0000CD0EB0C006CEB01012D2368
:10FD000002E0230504D52B238DF82430012303E0E2
:10FD1000E30701D02023F7E7984658E00A2110E0D6
:10FD200010210EE010204FF0000B08900CE0102185
:10FD30004FF0000B44F004044FF00809089103E071
:10FD400008214FF0000B0891C4F30253022B04D09A
:10FD500001CF0021032B06D006E0FF1D27F0070787
:10FD6000F7E8020103E080B2042B00D1C0B24FF0EB
:10FD7000000823072BD5702A07D0DDF820C08CF0AF
:10FD8000100C5CEA0B0C05D00EE040238DF82430FB
:10FD9000012308E050EA010306D030238DF8243017
:10FDA0008DF8252002239846DDF820C08CF0080C41
:10FDB0005CEA0B0C0BD150EA010301D1630706D5B5
:10FDC00030238DF824304FF00108A9F10109582A99
:10FDD00004D038A20B9208AA0A920BE03AA2F9E7E3
:10FDE0005B46089AFFF728FA0B9B9B5C0A9A521E07
:10FDF0000A92137050EA0102F2D10A98ADEB0000AA
:10FE000000F1200B600702D524F4803401E04FF0AC
:10FE10000109D94502DDA9EB0B0000E0002000EB51
:10FE20000B0141440890AAEB010AE00306D4DDE986
:10FE30000F232146504600F063F806444FF00009B6
:10FE400008E009A911F80900DDE90F12904709F14E
:10FE50000109761CC145F4DBE0030CD5DDE90F2375
:10FE60002146504600F04CF8064404E0DDE90F124C
:10FE700030209047761C0899481E08900029F5DC30
:10FE800008E00A980A990078491C0A91DDE90F12E6
:10FE90009047761CBBF10001ABF1010BF1DC214670
:10FEA0005046DDE90F2300F019F806446D1C1BE6EF
:10FEB0000928010030313233343536373839616240
:10FEC0006364656600000000303132333435363704
:10FED0003839414243444546000000002DE9F041D5
:10FEE000044600251E461746880404D405E039461A
:10FEF0002020B0476D1C641EF9D52846BDE8F0816E
:10FF00002DE9F041044600251E469046C80301D560
:10FF1000302700E02027880404D505E04146384614
:10FF2000B0476D1C641EF9D52846BDE8F0812DE967
:10FF3000FC47002517880646158090F82D001446CA
:10FF4000894630B13A462146484600F011FD050089
:10FF500009D1B0784FF00C0A18B32088C846001DAC
:10FF6000B84202D95046BDE8FC87684679DF0028D0
:10FF7000F9D12088032108F8001020881921401C9D
:10FF800080B2208008F800102088401C80B22080B9
:10FF900000EB0801BDF8000003F06DFA2188084469
:10FFA0002080F0780222C8B1218896F9033001F14F
:10FFB000030C4846BC45D5D8425421884FF0010C6B
:10FFC000491C89B2218000F801C02188491C89B2EE
:10FFD000218009F801302088401C20807068B8B169
:10FFE000218890F9003001F1030C4846BC45B9D88E
:10FFF000425421880A22491C89B221804254218816
:020000040002F8
:10000000491C89B2218009F801302088401C2080D9
:10001000308950B1CDE900474B460622022106F156
:10002000080003F075FA05009DD1308A50B1CDE982
:1000300000474B460722032106F1100003F068FA3F
:10004000050090D1308B50B1CDE900474B461522C9
:10005000142106F1180003F05BFA050083D1306A21
:1000600030B13B462246494601F04CF80500DBD151
:10007000706A30B13B462246494601F0DDFB05007F
:10008000D2D196F82C0038B13B462246494630463C
:1000900002F000FC0500C7D1307838B13B4622465B
:1000A0004946304601F0FAFB0500BDD128465AE723
:1000B000134A0021535C0BB1012203E0491C0629BD
:1000C000F8D300220F49012806D0022809D00328BE
:1000D0000CD0042812D10DE0487810B10AB10120EB
:1000E0007047887810B10AB102207047C87808B10B
:1000F00003207047087908B104207047002070473A
:1001000065260020D82A002010B5012202210020F7
:1001100000F074FE08B1072810D107220221012047
:1001200000F06CFE08B1072808D100210A22084619
:1001300000F064FE08B1072800D1002010BD0000C7
:1001400030B5A7B03C2101A8FFF7C0F802208DF818
:10015000040000248DF8064005208DF807003C219E
:1001600010A8FFF7B3F80F4801251590ADF85050CF
:1001700020211FA8FFF7AAF8402023908DF87F5078
:10018000B4202490084B1FAA10A9009401A800F0E5
:1001900041FA08B100F03CF8012000F035FA27B030
:1001A00030BD0000102600200724020070B50C4668
:1001B0000146154609A0FFF757FC21460BA0FFF7A3
:1001C00053FC29460BA0FFF74FFC0D4C0DA0E16935
:1001D000FFF74AFCE069401CE06170BD0A6572727D
:1001E0006F722069643A2025690A000070633A2022
:1001F00025690A00696E666F3A2025690A000000C9
:10020000F8250020657272233A2025690A00000053
:100210000EB500210091CDE901106A4644F20100BB
:10022000FFF7C4FF0EBD10B58268C368934203D0C8
:1002300000F0FCFF002010BD052010BD29B112B157
:10024000531E134203D0092070470E2070470160EF
:10025000838000218160C1600846704710B58268C4
:10026000C3689A1A83889A4203D800F0E9FF0020F5
:1002700010BD042010BD0000084B9B7823B12AB1AB
:1002800020B10068037C1BB108207047072070472D
:100290000023037441744261184670477C2C00208F
:1002A0002DE9FC47DFF8789099F8023073B368B312
:1002B000052902D20720BDE8FC87436933B3437C9C
:1002C000012B25D0002704460025884616468DF8C8
:1002D0000050684600F0CAF801A803F001F9C8B15F
:1002E000012101700F4944600968C0E90218C0E9A2
:1002F00004769DF8040089F801009DF8000000F0E4
:10030000D9F81420FFF7AEF92846D4E70820D2E741
:100310000F46D8E704259DF8000000F0CBF8F3E77E
:100320007C2C0020041501400649897839B130B190
:10033000416921B100210174022102F09DBC082015
:10034000704700007C2C002070B50A4E01460A4818
:10035000B578FFF768FF04464DB10020B070711CFE
:100360000122C81D01F0C4FD08B1FFF751FF20466E
:1003700070BD000094260020882D0020F0B5284E86
:1003800089B01F460D00044672603BD0A8882968DA
:1003900082B22448FFF752FF002834D1A889A96807
:1003A00082B220481030FFF749FF00282BD12022CD
:1003B0001D496846FEF771FF60690690207C00B118
:1003C00001208DF814008DF81C70607C00B10E20A7
:1003D0008DF81500E0680290A068039020680190F5
:1003E000606800900E48114A6946083001F04CFDE3
:1003F000002808D1B0702068401C04D09DF81D0072
:1004000018B106E0072009B0F0BD0548083001F03A
:10041000C7FD03490122491CC81D01F069FDF2E72F
:1004200094260020882D002084360200C931020065
:1004300010B501460B48FFF711FF040010D10A4820
:1004400001F0F8FE60B9084906480839FFF7EBFEED
:1004500030B9054901220839034801F065FE044618
:10046000204610BD982D00209C26002030B5EFF3CB
:10047000108172B60D4A9468012324B103700029DB
:1004800000D162B630BD93604FF0E023D3F88051C5
:10049000074C25401560C3F88041D3F8844154606F
:1004A0005A17C3F8842100220270E8E7A82D002023
:1004B000FC06FFBD0B498A68002A11D000280FD125
:1004C000EFF3108072B60B684FF0E022C2F80031F3
:1004D0004B68C2F8043100228A60002800D162B65D
:1004E00070470000A82D00202DE9F041064608685D
:1004F0000C46411C4FF0A0474FF0010506D005FA0D
:1005000000F1C7F80815206801F0BBFE6068411CC7
:1005100002D0002101F0ACFE3079204901EB4010FF
:10052000A169007F00283068C0F8241525D0607DBF
:10053000227D31681043C1F86C05D4E9001230689F
:10054000C0F80C15C0F8142524E0A068411C02D0A6
:10055000002101F08DFEE068411C05D08540C7F800
:100560000855E06801F08DFED4E902123068C0F849
:100570000825C0F81015BDE8F081607D217D326846
:100580000843C2F86C05D4E900123068C0F814259D
:10059000C0F80C15207D0128D7D0ECE7342C0020C2
:1005A000F0B50C4693B01F210726ADF80010ADF84A
:1005B0000410002750B1C17849070DD56A4602A939
:1005C000FFF7B5FC002808D102AD02E00025ADF828
:1005D00000706CB1E07810B1304613B0F0BD01AAE4
:1005E0000AA92046FFF7A3FC0028F6D10AAA02E0D8
:1005F0000022ADF80470BDF80400C3B2BDF80000DD
:10060000C1B2284672DFE8E701490871704700006F
:100610004C2600202DE9F0471F46DDF820801346C8
:100620008946040043D0EBB3404D012000262870DA
:10063000EE70202219463E48FEF72FFE2E71C5E9C6
:1006400004784FF6FF706881AE613948AE83AE77AB
:100650003C212030FEF73AFE3548217820300170E9
:10066000A1788170E178C170617841703049D4E936
:100670000423C1E90C23D4E90223C1E90A23D4E904
:100680000623C1E90E23616AE1B100F13C0100F1EA
:10069000480241628A60636A1B880B80616A436A10
:1006A000898800E003E099800021436A07E00E207A
:1006B000BDE8F087656AAD686D5C5554491C9D883E
:1006C0008D42F7D8A16AD9B1194A9432A2F10C012E
:1006D0008A608162A36A9B888B80A16A836A098889
:1006E00019800021836A04E0A56AAD686D5C5554E9
:1006F000491C9D888D42F7D894F82C1080F82C1056
:10070000216A49B109490C310162226A52884A8042
:10071000216A026A09881180616801B14160494615
:10072000BDE8F04702482030FFF73ABF4C260020D2
:10073000D82A002010B50188144C102918D011298E
:100740001CD01B2919D1007A002816D1E078052188
:10075000401CB0FBF1F201FB120000BF00F018F8E2
:1007600000280AD06169002907D0BDE81040084779
:10077000C17B012901D18088608110BD0021A17158
:10078000808861898842F8D10120E7E74C26002063
:100790002DE9F0413D4C804686B0207848B184F880
:1007A000038004A800F05CFD0498012628B166705F
:1007B00068E0082006B0BDE8F0810025A561344F4F
:1007C000A583A577787810B1E078012806D0B878AD
:1007D00058B1E078012801D0022806D1216919B169
:1007E00066710820884700E065714046FFF760FCAD
:1007F000E070216939B1032801D0042803D1387889
:1008000008B1A07990B1E571009502950195039525
:100810008DF800508DF808501C48E17818300529F3
:1008200025D2DFE801F03108111D21002572E671A3
:1008300007208847E8E7A67001908DF80060ADF8C2
:100840000C50ADF80A5014E00221A17001908DF80F
:100850000060B889ADF80C003889ADF80A0008E0EE
:10086000684602F05BF802E0684602F07BF8E07848
:1008700020B12179684673DF00289BD1216909B135
:10088000A0788847002095E7A570F7E74C26002060
:10089000D82A002070B5054601461C220F48FEF7F5
:1008A000FCFC0F4C00262670286830B1016861609E
:1008B0004068A060201D7ADF02E00948001D7BDF50
:1008C00000280AD14FF6FF7060806670BDE8704066
:1008D000044A00210448FFF7CFBC70BDAC2B0020B8
:1008E0006C260020813402004836020070B51E4C90
:1008F000068800231B49E289102E15D01B4D112EAE
:100900001CD0122E29D0502E17D130F8061F91423C
:1009100013D14189022910D10C3000F0FAF888B1C6
:10092000BDE8704000F034BC84884C800469CC6021
:10093000406908614B70002AF2D070BD4FF6FF701D
:1009400048804B702868FFF7EFFC0028F5D0A169BC
:100950000029F2D0BDE8704008478268CA60C068CC
:100960000861DDE76C260020AC2B00204836020031
:100970007CB5054608880C460930904201D90C2008
:100980007CBD68466DDF0028FAD1218808206854B4
:1009900020881B21401C80B2208029542088401CC4
:1009A00080B220802844DDF801100160BDF80510F8
:1009B00081802088801D80B220809DF80010490829
:1009C00000D0012129542088401C208000207CBDBB
:1009D00010B50446FFF78AFF2146094800F0D6FF0C
:1009E000074821461C3800F03FF8204601F01EFD64
:1009F0002046FFF79FFE2046BDE8104000F06EB98C
:100A0000502A002030B5174B0D4604000FCB85B09F
:100A10008DE80F0023D015B34FF6FF70A082286831
:100A2000A0610020A0752146684662DF002814D12D
:100A300020788DF812000120ADF81000A21C04A946
:100A4000A0DF002809D12946204601F07EFE0028BB
:100A500003D12946204602F009FB05B030BD0E2027
:100A6000FBE700006436020010B5002822D0002900
:100A700020D00A88102A18D0112A18D0502A19D14B
:100A800004468A1DC88823891231984202D15389AD
:100A9000022B10D0A38998420CD1A369002B09D056
:100AA00052892046BDE810401847898801E04FF67A
:100AB000FF71818210BD084600F02BF800B10120C3
:100AC000A07510BD07B584B068B1828AA2F57F43D6
:100AD000FF3B0AD0827D42B1BDF818209B2A06D97F
:100AE000072007B000BD0E20FBE70820F9E7002231
:100AF00000920192029203928288039106A90291C8
:100B0000ADF8002001218DF80210808A6946A6DF29
:100B1000E7E7007800F001007047000030B52B488F
:100B200085B0002300680490D822294904A801F068
:100B3000DDFF08B1FFF76CFB00246846009401F06C
:100B400047FF08B1FFF764FB012501948DF80450BD
:100B50008DF80540029403948DF8064001A94020C9
:100B6000009A69DF08B1FFF753FB01948DF8045038
:100B70009E20ADF806000294039401A92320009A58
:100B800069DF08B1FFF744FB019402944FF4A070B1
:100B90008DF80450ADF8080003948DF8065001A9B3
:100BA0002020009A69DF08B1FFF732FB684601F0A8
:100BB00023FF08B1FFF72CFB064801F013FF0028C4
:100BC00001D0FFF725FB05B030BD0000E035020085
:100BD000C0260020D10902001CB50EA00422006826
:100BE000009069460C48FFF76DFF0C4C207810B15F
:100BF0007620FEF7E7FB0AA004220068019001A915
:100C00000548FFF75FFF6078002802D07720FEF7E5
:100C1000D9FB1CBD76767676342A0020F825002094
:100C2000777777770149085C704700001836020033
:100C300007490B5C4FF0A041D1F8042501209840F2
:100C400020EA0203C1F808351040C1F80C057047CE
:100C5000143602000249085C012101F045BB000086
:100C6000143602000249085C002101F03DBB00007F
:100C7000143602000649095C4FF0A040D0F8040584
:100C8000C84010F0010000D0012080F00100704742
:100C90001436020010B500242046FFF7DBFF641C69
:100CA000042CF9D310BD10B500242046FFF7DAFF5D
:100CB000641C042CF9D310BD10B50246064B4FF04E
:100CC000FF3000215C5C944201D1084610BD491CF4
:100CD0000429F7D310BD00001836020010B51A4CD5
:100CE0000188606810290ED011292BD1401E606048
:100CF00028D1FFF709FA002824D02168002921D043
:100D0000BDE810400847D0B900210122084600F094
:100D100075F808B107280FD107220221012000F041
:100D20006DF808B1072807D104220221002000F045
:100D300065F820B1072802D0216801B188476068B2
:100D4000401C606010BD00004426002010B500204B
:100D500000F05EF908B1062806D1012000F058F92C
:100D600008B1062800D1002010BD00002DE9F04791
:100D70000D468146FFF7A0FF0446042836D2DFF86F
:100D800074801B481C4EA8F10C0725B3012D0ED012
:100D9000022D2BD104EB440030444578002D25D0A2
:100DA000B968002922D02846BDE8F047084704EB7F
:100DB0004401755C0E44717849B10E4A4FF400410C
:100DC000093A8068FFF76CFA08B987F80390B178A0
:100DD00008F80410E2E78068FFF7A6FA04EB440184
:100DE000314418F804008D78A842D7D0BDE8F087C8
:100DF0001C36020040260020AC2A002070B50023DB
:100E0000042810D20D4D00EB4004012A02D1012923
:100E10000CD00022094E00EB4000304461B10129A2
:100E200006D0022906D00723184670BD0E30C2B284
:100E30002A55F9E74270F7E78270F5E7AC2A0020FF
:100E4000044A014600201279D20702D0084600F079
:100E500003B87047342600202DE9F05F6A4C054640
:100E600000266078B34618B184F801B000F058FB52
:100E7000664F4FF47A694FF4C87A4FF00108182D85
:100E800062D2DFE805F0AC0C0C31404D62676B7448
:100E90006B74BE7D7D7D7D7DACAFB2B5BEBE0020E6
:100EA000FFF7E8FE00284FF0000008D0FFF7D2FE61
:100EB000022D02D14FF4E16008E0484606E0FFF75A
:100EC000D1FE022D01D1C82000E05046410CC003E4
:100ED0004FF4FA72801841F100012570520000238E
:100EE000FEF7AAF901462AE00020FFF7C3FE00281A
:100EF0004FF0000004D0FFF7ADFE4FF44870E5E777
:100F0000FFF7B0FEDFE70020FFF7B4FE00284FF048
:100F1000000002D0FFF79EFECFE7FFF7A3FED4E765
:100F20000020FFF7A7FE00284FF0000002D0FFF7D7
:100F300091FE01E0FFF796FE257041F69A1100221E
:100F40003868FFF7ADF9064646E00020FFF770FE6F
:100F5000257008E0002051E025703DE084F8018014
:100F60000120FFF765FE002240F6CD41E8E784F856
:100F700001800120FFF75CFE00224FF48041DFE793
:100F80007868FFF7D1F90646D5F1110000D02EB1EF
:100F90000220FFF75FFE84F802B01DE0012816D999
:100FA00080B2C8214843C117C90341EA5041C00378
:100FB0004FF4FA72801841F1000152000023FEF74D
:100FC0003BF9014600227868FFF76AF906460220DD
:100FD000FFF748FE84F802803046BDE8F09F00F03D
:100FE0009FFAB9E700F09CFAB4E700F099FA04E040
:100FF00000F096FA0020FFF735FE0120FFF732FEE1
:10100000AAE7FFF750FEA7E7342600201C360200AF
:1010100010B5FFF707FE032101F03DF9002010BDD8
:101020000249084490F9300070470000DC2B002092
:1010300070B5084C050009D010342168002907D08C
:1010400008682060496828468847F6E70834F4E7CE
:1010500070BD0000C82B00202DE9F05F26484168D4
:10106000F1B3DFF898B00E688146DBF8004087687E
:101070008078E11B21F07F45ED1CB0B9DFF880805E
:101080004FF48030C8F84403C8F804031120FEF779
:10109000BDFA1120FEF7D0FA4FF0010AC8F800A0FF
:1010A0002F2000F0AFFD89F802A0B54200D23546EE
:1010B000124BE8193C3320F07F401860DBF8001039
:1010C0005A46091B21F07F41001B20F07F40C91CBC
:1010D00081420FD9106818602F2000F093FD00E0C6
:1010E00004E0BDE8F05F1120FEF7BCBABDE8F05F98
:1010F00001F0F4BABDE8F09F8026002004150140FD
:10110000001001402DE9F04117880646B81D14462D
:101110000D46984202D90C20BDE8F08131880722A3
:1011200006290AD34FF4486C4FF6FF73614501D985
:10113000994202D17088062801D21046ECE760453A
:1011400001D99842F9D1994203D0984201D0814205
:10115000F3D80520E85520881221401C80B2208059
:1011600029542088401C80B220804119308802F028
:1011700082F92188084480B220804119708802F0E9
:101180007AF92188084420800020C5E7FFF740B89D
:10119000F8B5134800F0B6F9114D0026114C0C3D7E
:1011A00030B16169B9B101208DF80000684611E0E5
:1011B000287820B1616971B18DF80060F6E7687830
:1011C00058B1A168084800220068FFF769F810B11B
:1011D000A16901B188472E70F8BD6168F2E700008F
:1011E00078260020AC2B0020483602000E4910B5AE
:1011F0000A784C780023A24212D0521CD2B20A7054
:10120000022A00D10B70084A0B780C3252F82320C6
:1012100002608868104420F07F408860012010BD83
:101220000360002010BD00008026002082688388B3
:101230001A4003689A5C0A708168491C8160704793
:10124000C26883881A4003689954C168491CC16008
:10125000704710B50446C0B2FFF7EAF8204610BD4B
:1012600020B10349496E0160002070470320704798
:10127000B42D002006484A8803899A4207D10A887B
:10128000A2F52063773B02D18988C91E418170474E
:10129000F825002010B50949094800F061FB08B1A4
:1012A000FEF7B6FF4021064800F04EFB002803D0B1
:1012B000BDE81040FEF7ACBF10BD00007512020083
:1012C000502A0020F8B51C4C2078002832D0206924
:1012D000002658B10025607800282BD1684648DFE9
:1012E000052805D030B1FEF793FF0AE00125F2E7AB
:1012F000012606E0009800F007FDA16809B10098FA
:1013000088479DB96078002814D16088ADF8000046
:101310006946E06861DF052803D020B1FEF778FF59
:1013200004E0012502E0D4E903018847002ED2D071
:10133000002DE6D0F8BD0000A826002070B50E46AE
:101340000446007918494FF4A27501EB4010017F63
:101350002068A1B14FF4887101F034F84FF4907116
:10136000206801F02FF84FF49271206801F02AF8FC
:101370002946206801F026F80C49206809E04FF45E
:101380008E7101F00EF82946206801F00AF808492C
:101390002068C0F80413206800F0D7FC3146BDE88F
:1013A000704000F0B6BC0000342C00201003020096
:1013B000800002002DE9FF470D464FF49277044666
:1013C000394600F0DEFF4FF002094FF001084FF4FC
:1013D000827640B13946204600F0D8FF314620469B
:1013E00000F0CFFFB0B3B2463146204600F0C9FF4F
:1013F0004FF0FF36002770B35146204600F0C6FF7D
:1014000005F10C0001AB07C883E8070095F823003D
:1014100078B1287B01282DD0D4F84C05C0B28DF8C6
:101420000600287B022828D0D4F84C05C0B28DF8DD
:1014300007004FF4B071204600F0A8FF4FF4AE71E2
:10144000204600F0A3FF95F8250080B395F823000F
:1014500068BB3CE000E013E0A868C4F80803C5F8E6
:101460000890A868C4F80403C4F82080C4F8148065
:10147000BDE8FF87D4F83C05D0E7D4F83C05D5E7B4
:101480004FF4A471204600F081FF287B80B14FF417
:101490000070C4F80002801CA860C4F80863A86843
:1014A000C4F80403C4F80880C4F82080E0E708E02A
:1014B00005F10C0001AB07C883E8070095F825008B
:1014C00028B90020C4F80002AF60C4F80863D4F85B
:1014D000C404C4F8C404810702D58DF8008006E076
:1014E000400702D58DF8009001E08DF8007095F866
:1014F000250008B985F82470D5E900216846904791
:10150000B6E70000054940880A88904204D349881C
:10151000884201D8012070470020704770260020C3
:101520000A4810B5807860B1002401E0022C06D092
:101530002046FFF78FFB641C042CF7D310BD032457
:10154000F6E7BDE81040FFF7A5BB000034260020F9
:101550009E21018017214180002101714171A2214A
:1015600081711B21C17170472DE9F047394E002769
:1015700080463D46DFF8E090D6F804A057E003D05F
:101580000446D0F81C8035E099F8002002EB4201B7
:10159000521CD2B289F8002009EBC10199F802303F
:1015A000091D9A4201D189F8005048680A7804461A
:1015B000012A12D0022A02D0032A3BD108E001F00E
:1015C0002BFB00B10127257434E00574C06900E0ED
:1015D00070680028F9D170602CE0207C50BB8868CE
:1015E0006060C868A0600869E0604869A061F07840
:1015F00000B165606268B168184B501A20F07F40F6
:10160000984202D2A168084406E0881AA16820F036
:101610007F40814202D9081A206000E025606560A1
:101620000120A56020742046E56101F0D7FAB8F1E9
:101630000000A4D199F8001099F801008142A3D1CB
:1016400017B97168514502D00120BDE8F08700202C
:10165000FBE70000802600207C2C0020FFFF7F009D
:101660008AB0182265496846FDF717FE644806905F
:1016700064494FF48070CDE9070109900723624A5D
:1016800006A96846FEF77AFE08B1FEF7C1FDFFF72E
:1016900045FA9DF808005DA120F00F00401C20F0E5
:1016A000F00010308DF80800092202A87CDF08B194
:1016B000FEF7AEFD002400941020ADF800003C20A1
:1016C0000194ADF80200ADF804404FF4C870ADF8D5
:1016D000060068467ADF08B1FEF79AFDFFF7DAFDEB
:1016E0004D48009069464D48FFF78CF908B1FEF768
:1016F0008FFDFEF725FD1C216846FDF7E7FD4FF441
:101700002030CDE900404FF47020029003208DF886
:101710000C004348059043480690ADF80E408DF804
:1017200010406846FFF7B6F808B1FEF771FD01F00A
:1017300057FB0320FFF72CF808B1FEF769FDFDF712
:1017400001FE394F00203C54401C1028FBDB364D75
:101750004FF0A0480835A5F12806B078E0B333482B
:1017600000F0C4F96C74F07840B1314800F0BEF973
:10177000FFF732FAF4702F4800F0B8F9307870B102
:10178000F721762000F07AFF18B9687C40F001005C
:1017900068740020395C2954401C0828FADB7078F2
:1017A00078B1F721772000F069FF18B9687C40F024
:1017B0000200687400202A18395C401C1172082845
:1017C000F9DB30787178084311D0174912220831BB
:1017D0001248FFF777F90AE0FFE7D8F810154046FE
:1017E000890911F0010F02D04021C0F80C153EDF2D
:1017F0000028B2D0FEF70CFDAFE70000EC35020088
:10180000332800203329002065310200534D415216
:10181000544D41534B000000D1230200342A0020D4
:10182000752502008D11020018260020400D0300CE
:10183000404B4C0080841E0070B5144682880E46D2
:1018400005462088111D0144921C994201D8FE2AA8
:1018500001D90C2070BD521C32542088FF21401C3D
:1018600080B2208031542088401C80B220808119B1
:10187000288801F000FE2188084480B22080AA88D0
:1018800042B1A96841B13044FDF707FD2088A9881D
:1018900008442080002070BD072070BDF8B50E46BA
:1018A000017814460546012901D1687830B12088B5
:1018B000821C9A422DD8012902D006E00720F8BDEB
:1018C00069780144891C994223D8181A801E87B26E
:1018D000ADF800702188B01C084469467DDF0028FF
:1018E000EDD12878022805D1BDF80010B94201D801
:1018F00009210AE00821012805D16878B84202D8F8
:10190000ADF8000001E0ADF80070BDF80000FE2861
:1019100001D90C20F8BD2288401CB0542088401CFE
:1019200080B2208031542088401C2080BDF80010F7
:10193000084420800020F8BDC20800F00703012001
:10194000895C98400840704728B1A1F11702882AA5
:1019500003D3072070470E20704701800020704796
:1019600070B5040010D09E20A16120806080A2206C
:101970002071002504EBC500801DFFF7E9FD6D1CFB
:10198000022DF7D3002070BD0E2070BD2DE9F0416F
:101990008D8890B00446022D7ED20888DFF8208121
:1019A000002622283CD006DC102809D011280BD0B4
:1019B00021286AD150E03A280CD0552865D12BE077
:1019C000204600F0E5FD60E004EBC500801DFFF758
:1019D000BFFD5AE02A4604EBC207488937F8061FC4
:1019E000814200D808467880172800D217207880D6
:1019F000A06970B1787960B1D8E90010CDE9001024
:101A0000ADF802207888ADF80400A2692046694646
:101A100090477E713E7138E0204600F0FBFD34E0D7
:101A200034226846091DFDF738FCBDF80000BDF8FA
:101A3000042004EBC0014A73A26932B3D8E904322E
:101A4000CDE90D32ADF83600487B8DF83800A2693B
:101A500020460DA9904718E00096019631F8040F32
:101A600004EBC0000A79007B904200D31046ADF829
:101A70000000ADF802000888002269468FDF0200EE
:101A800003D01049012000F06DFC04EBC504A07ADE
:101A9000002812D0E18800E00FE028469EDF020017
:101AA00008D0112A09D010B00749BDE8F041012043
:101AB00000F058BCA6720120E07210B0BDE8F081C1
:101AC0004C36020058370200A436020000F1804074
:101AD0000068002800D00120704708B500F1804060
:101AE000002101600068009008BD000000283ED081
:101AF0001F49204A096800BF00BF00BF00BF00BFE8
:101B000000BF00BF00BF91422FD000BF00BF00BF89
:101B100000BF00BF00BF00BF00BF00BF00BF00BFCD
:101B200000BF00BF00BF00BF00BF00BF00BF00BFBD
:101B300000BF00BF00BF00BF00BF00BF00BF00BFAD
:101B400000BF00BF00BF00BF00BF00BF00BF00BF9D
:101B500000BF00BF00BF00BF00BF00BF00BF00BF8D
:101B600000BF00BF00BF00BF00BF401EC3D1704711
:101B7000BC2600200024F40000283ED01F49204A43
:101B8000096800BF00BF00BF00BF00BF00BF00BFAB
:101B900000BF91422FD000BF00BF00BF00BF00BFF9
:101BA00000BF00BF00BF00BF00BF00BF00BF00BF3D
:101BB00000BF00BF00BF00BF00BF00BF00BF00BF2D
:101BC00000BF00BF00BF00BF00BF00BF00BF00BF1D
:101BD00000BF00BF00BF00BF00BF00BF00BF00BF0D
:101BE00000BF00BF00BF00BF00BF00BF00BF00BFFD
:101BF00000BF00BF00BF401EC3D17047BC260020FD
:101C00000024F40000283ED01F49204A096800BF84
:101C100000BF00BF00BF00BF00BF00BF00BF9142B8
:101C20002FD000BF00BF00BF00BF00BF00BF00BF7C
:101C300000BF00BF00BF00BF00BF00BF00BF00BFAC
:101C400000BF00BF00BF00BF00BF00BF00BF00BF9C
:101C500000BF00BF00BF00BF00BF00BF00BF00BF8C
:101C600000BF00BF00BF00BF00BF00BF00BF00BF7C
:101C700000BF00BF00BF00BF00BF00BF00BF00BF6C
:101C800000BF401EC3D17047BC2600200024F400D2
:101C900070B50F4C0025207808B1852516E000218D
:101CA000A16061602161E1604FF0E020D0F80001A7
:101CB000012610F0010F03D10721002000F029F8C0
:101CC00000F046FF08B9034806602670284670BD3C
:101CD000C82B00201805004038B500208DF8000002
:101CE0006846FEF7C3FB074C207808B9FFF7D0FF22
:101CF000E068401CE0600120A0709DF80000FEF745
:101D0000D9FB38BDC82B0020002801D1FFF790B9BE
:101D100070474907090E002806DA00F00F0202F1A9
:101D2000E02282F8141D03E000F1E02282F80014A2
:101D300000F01F02012191404009800000F1E020E5
:101D4000C0F88012C0F800117047000B40B2704715
:101D50000121B1EB507F01D1012070470020704775
:101D60000121B1EB507F01D1012070470020704765
:101D70000179064A01EB8101006802EBC1010622EC
:101D8000C0F80025022081F822007047542C002062
:101D900070B506460D4600791F4900EB800001EB47
:101DA000C00494F8220008B1082070BD0020C4E9E6
:101DB0000023A06084F8250084F82400A87B84F820
:101DC0002700687B10B1284600F0B4FF296840F274
:101DD0000C60890001F1A041C1F800076968890021
:101DE00001F1A041C1F80007D5E900123068C0F840
:101DF0000815C0F80C25A968C0F82415206828B17A
:101E00003068297B000B40B2FFF783FF012084F884
:101E10002200002070BD0000542C00203EB5074D6C
:101E20002C68AD6800948DF80110019202958DF830
:101E300002300022694600F015F83EBD78360200F7
:101E40003EB500250095069C8DF8011002958DF891
:101E5000023001920CB1202200E00022694600F01D
:101E600001F83EBD30B40379064C03EB830304EB69
:101E7000C304006813460A460146204630BC00F001
:101E8000C5BF0000542C00202DE9F0410546007923
:101E9000164F904607EB40140E46E07E10B1082026
:101EA000BDE8F081707F20772846FEF71DFB5FEAD2
:101EB000080060603169216003D0317F2846FFF758
:101EC0003DFA287907EB4010007F0028286801D0F0
:101ED000082100E00421C0F800150020E0752076FC
:101EE000A0750121E176A076DAE70000342C00200D
:101EF0002DE9F04105460079284E904606EB401446
:101F00000F46207F18B10846FFF722FF80B16268B4
:101F100000234FF404704FF4017172B12A7906EB7B
:101F20004212127F002A2A6805D0C2F8080304E092
:101F30001020BDE8F081C2F80813E27DB2B1227E24
:101F40007AB162685AB12A7906EB4212127F1AB14D
:101F50002968C1F8040302E02868C0F804131120BE
:101F6000E7E72761012384F8188005E084F81780EB
:101F70000020E760607620762879424606EB401024
:101F80003946007F0028284603D0BDE8F04100F024
:101F900073B8BDE8F04100F01BB80000342C0020FD
:101FA00070B504460079094D05EB4010017F00290A
:101FB0000AD1807E002807D1204600F023FC217939
:101FC000012005EB4111887670BD0000342C002003
:101FD0002DE9F05F04460079264901EB4015A87E03
:101FE000184302D1204600F00DFC686800282068E4
:101FF00006D04FF40171C0F804130020BDE8F09F33
:102000004FF4A276314600F0CCF9B1464FF4927A03
:102010004FF4847B5146206800F0BEF906465946CD
:10202000206800F0B9F980464946206800F0B4F90C
:10203000074648EA07003043ECD056EA070007D1CC
:102040002946206800F068FBE87D697E8842E1D877
:102050000020E8750EB10320D0E70FB10F20CDE7C7
:10206000A97E01200029216801D00860C5E74860E9
:10207000C3E70000342C00202DE9F05F89460446B8
:102080004FF488759A46904600260068294600F06D
:1020900099F94FF4A2773946206800F093F9206847
:1020A000C0F83495C0F838852068BAF1000F14D014
:1020B000D0F8001241F02001C0F800122179DFF8B9
:1020C000648008EB4110406850B120684FF40471FF
:1020D000C0F804133046BDE8F09F01210160EDE730
:1020E000AA46B9464FF4927B5146206800F065F944
:1020F00007464946206800F060F9054659462068C1
:1021000000F05BF9014647EA05000843ECD023796B
:10211000002208EB4310C27501B10326002DD9D06F
:102120000F26D7E7342C00202DE9F047054600792B
:102130003F4E904606EB40140F46207F18B10846EC
:10214000FFF706FE30B1284600F074F820B11120E8
:10215000BDE8F0871020FBE784F81680A760002711
:10216000A78228794FF0010806EB40143E46207FF5
:102170000028286825D04FF49079494600F022F9CC
:102180004FF4AC7A5146286800F01CF92868A17D0C
:10219000A268C0F84425C0F848152868C0F808802F
:1021A0006068F0B94946286800F007F98046514652
:1021B000286800F002F958EA0001F3D058BBA7756F
:1021C0000FE04FF48E7A514600F0EBF82868C0F823
:1021D00008802146286800F039FF61684FF480705C
:1021E00089B13046B4E75146286800F0D5F810B9F7
:1021F000A08A4845F7D1A08A484505D021462868DD
:1022000000F024FF00E08146A08AA17D8842EAD345
:10221000A08A484501D10F26D1E75146286800F031
:10222000BBF80028F9D02868C0F80C80C7E7000088
:10223000342C00200079044901EB4010807D0028F7
:1022400000D0012070470000342C002070B541EA16
:102250004201DDE904564FF0A04441EA830141EA1E
:10226000052104EB800041EA0641C0F8001770BD6B
:102270001CB500220B46009211460192FFF7E6FFC3
:102280001CBD1CB5002100910B4601220191114695
:10229000FFF7DCFF1CBD4FF0A04202EB8000D0F83E
:1022A000002722F44032C0F80027D0F8002742EA85
:1022B0000141C0F8001770474FF0A04202EB8000C8
:1022C000D0F8002722F44032C0F80027D0F80027C9
:1022D00042EA0141C0F8001770474FF0A0420121C7
:1022E0008140C2F80815704701224FF0A043824098
:1022F00011B1C3F808257047C3F80C2570470000DA
:1023000018B5084B6C4601441B68009306E000BFFB
:1023100054F82030D3F81035401C08C28142F7D859
:1023200018BD000074360200034908B508440021B6
:1023300001600068009008BD0060004002494058FC
:10234000012800D0002070470060004038B50D46DD
:102350000093034B00215C6913462A46A04738BD11
:102360001C2E002008B5012300926A46FFF7EEFFFD
:1023700008BD1CB5CDE9002302236A46FFF7E6FF3E
:102380001CBD4058002800D00120704708B500222D
:1023900042504058009008BD4058002800D001200D
:1023A000704708B5002242504058009008BDD0F850
:1023B0000403084000D0012070474058002800D096
:1023C0000120704708B5002242504058009008BDD7
:1023D00070B516460D46002408E0285DFEF728F883
:1023E00018B11128F9D0FDF713FF641CB442F4D3DF
:1023F000A81910F8010C0D2804D10A20FEF718F8CE
:102400001128FAD070BD10B550B103280CD10220AC
:10241000FEF716FD002807D0BDE81040FDF7F8BE16
:10242000BDE8104000F0C0BA10BD0000F0B5464D48
:102430000446018800270126288989B0212942D035
:102440000CDC012958D0102914D0112921D01329CE
:102450001DD100231A4685217FDF42E03B2947D06A
:1024600051294DD0522938D0562910D1A088132196
:1024700076DF36E00720FEF7E3FC08B1FDF7C8FE83
:10248000A088288131A0FDF7EFFAAE70EE7009B098
:10249000F0BD0020FEF7D4FC08B1FDF7B9FE4FF601
:1024A000FF7028812DA0FDF7DFFAAF70BFF34F8FCB
:1024B0002E4801682E4A01F4E06111430160BFF328
:1024C0004F8F00BFFDE700970197A0880022694663
:1024D0008FDF32E0FDF79CFED9E700231A4619464C
:1024E000A9DF0028D3D009B0BDE8F040FDF790BEC9
:1024F000A088132176DFF4E7A088002166DFF0E7EB
:102500001022A11D04A8FCF7C8FE9DF81010002998
:10251000BDD09DF81800042803D0062801D0052856
:10252000B5D102290CD08DF8006000BF4FF4C17006
:10253000ADF80400A0886946A8DF0028CAD1A6E744
:1025400002208DF80000F1E7F8250020436F6E6E41
:102550006563746564210D0A0000000044697363BB
:102560006F6E6E6563746564210D0A000CED00E00A
:102570000400FA050078002807D104483B210089AF
:1025800076DF002801D0FDF743BE7047F825002014
:102590007CB58E88027900EBC605AC1D2A73C97B19
:1025A000012902D0022904D101E0008800E040881E
:1025B00020802188608881420AD930469EDF02004F
:1025C0004FF001001DD0112A1DD01049FFF7CAFE9F
:1025D000A079E179884213D9002000900190287BEE
:1025E000ADF80000287BADF80200002269463046B5
:1025F0008FDF030004D0324605490120FFF7B9FE02
:102600007CBD6071E4E72071E2E70000A4360200BF
:10261000B83702007CB506468D88C88806EBC5042D
:10262000A41D172800D217202188814200D808460F
:1026300060800020207121882846ADDF020003D091
:102640000C490120FFF78EFE6079002810D1B06997
:1026500000280DD00849D1E90201CDE90001ADF80B
:1026600002506088ADF80400B26969463046904770
:102670007CBD0000003702004C36020013B5044652
:1026800082B000200090012303AA21461148FFF7E1
:10269000D7FB58B1104A762C14D0507C772C15D02B
:1026A00000F0F7005074012004B010BD0A4A08235E
:1026B000083A21460748FFF7B1FB08B1FDF7A8FD2E
:1026C0000020F1E7507C00F0FE00EBE700F0FD0099
:1026D000E8E70000E43502002026002070B501265E
:1026E00070044FF0E0210025C1F88001084C401033
:1026F000C4F84803C4F8080366602F20FFF782FA85
:10270000A660044C2F20A560FFF77CFAA57070BD71
:10271000001001408026002070B50546C87D0C469B
:1027200000284FF4847128460AD0FFF73AFED5F806
:102730001805627EE1688854607E401C607670BD3A
:10274000FFF72FFED5F8180570BD30B58FB00546E0
:102750001C216846FCF7BAFD00249DF80000019496
:1027600040F00C008DF80000039404940594069446
:1027700028788DF836000220ADF834000C949DF8CE
:102780003000142120F00F00401C20F0F000103029
:102790008DF830009DF8310020F00F00401C20F033
:1027A000F00010308DF831009DF8320020F0060066
:1027B000801C20F0180040F001008DF8320007A8BE
:1027C000FCF784FD0DA807900CA808900120ADF837
:1027D00024009B20ADF82640ADF82800688805F15C
:1027E0000C0307AA6946A2DF0FB030BD1FB5012355
:1027F0008DF800308DF808100192D0E9001268467B
:1028000090471FBD10B5044600684FF49271FFF762
:10281000C8FD4FF484712068FFF7C3FD20680121D3
:10282000016010BD10B50446FDF73EF940B1002C23
:1028300009DA04F00F0000F1E02090F8140D06E032
:1028400042F2010010BD04F1E02090F800044109BB
:10285000082914D299B1012911D004290FD00529D2
:102860000DD00B480122816861B1610950F8213017
:1028700004F01F04A240134340F8213005E042F267
:10288000020010BD2046FCF7E2FE002010BD000053
:10289000A82D00202DE9F0410746806A144688469D
:1028A000C8B3002531E000BFB96A05EB450001EB74
:1028B0008006B088801CFE2802D90C20BDE8F0817B
:1028C0002288401C08F8020020881622401C80B292
:1028D000208008F800202088401C80B2208000EB77
:1028E0000801308800F0C7FD2188084480B22080AC
:1028F000B28842B1B16871B14044FCF7CEFC208887
:10290000B188084420806D1CEDB297F82C00A842D5
:10291000CAD80020D2E7FFE70720CFE710B50F495C
:102920000F4C0A8A42818A8A8281097891B1A17901
:1029300081B9217A71B10221017208490420203144
:10294000C870064800212030FDF72AFE002804D177
:10295000052000E00320A070002010BDD82A002030
:102960004C26002010B50E490E4C0A8B42818A8BF2
:1029700082810A78042182B1A27972B9227A62B185
:102980000222027206482030C1700021FDF708FEC5
:10299000002804D10620A07000E0A170002010BD26
:1029A000D82A00204C26002010B50020FEF748FA57
:1029B00008B1FDF72DFCFEF7C9F908B1FDF728FCB9
:1029C00032DF002803D0BDE81040FDF721BC10BD68
:1029D00008B5034A009200210260084608BD0000C5
:1029E000F825002018B103490861002070470E2027
:1029F00070470000A826002038B505460068009002
:102A0000684660DF04462868009A90420FD00CA107
:102A10000220FFF7A7FC4FF08050D0F80C0100997E
:102A2000800200F10050421A12A1022003E024B1FA
:102A300022461DA10120FFF795FC204638BD00006D
:102A40005344483A5741524E494E473A52414D201D
:102A500073746172742073686F756C642062652092
:102A600061646A757374656420746F2030782578AA
:102A70002E0D0A005344483A5741524E494E473AA8
:102A800052414D2073697A652073686F756C6420BC
:102A900062652061646A757374656420746F2030A8
:102AA0007825782E0D0A00005344483A4552524F7B
:102AB000523A73645F626C655F656E61626C652833
:102AC000292072657475726E656420756E65787004
:102AD00065637465642076616C75653A203078258D
:102AE000782E0D0A00000000FDF760BB2DE9F041D3
:102AF000074619B188074FF0000402D00720BDE84F
:102B0000F081114D4FF0E0200126E9606A806B6092
:102B1000D0F8000110F0010F03D034460020FCF77C
:102B200080FD0A49384610DF070005D014B10020A7
:102B3000FCF78DFD3846E2E72E70FFF7CDF8BDE8D3
:102B4000F0411620FFF76EBEA8260020E92A0200F9
:102B50000148007870470000A82600202DE9F84FB2
:102B60001D4C00256846D4E901A6FEF73FFB00276F
:102B700038B30023009A61681CE0D1F800C0084611
:102B8000944503D9ACEB02020A6015E0A2EB0C02FB
:102B900063440760D0F80CC0C1698146BCF1000FE6
:102BA00008D006EB030828F07F48C0E9018CC9F87B
:102BB0001C5005460029E0D128466160FEF7D4FC90
:102BC00003E02846FEF7D0FC10B15046FEF744FA69
:102BD000E770BDE8F88F0000802600200D4B10B58F
:102BE000596831B102680C68A24204D8A21A0A607E
:102BF000C161586010BD0B4603E00B46C969121B4A
:102C000021B10C689442F8D3A41A0C600260C1612F
:102C1000D86110BD802600202DE9F041144E776860
:102C20003D462C4603E0844204D02546E469002C4E
:102C3000F9D11BE0D4B1A5420BD1F869706040B95D
:102C40000C49012088600021B160F0702F20FEF750
:102C5000D9FF2168E069E86110B1026811440160A0
:102C60007068874202D00120BDE8F0810020FBE7B8
:102C700080260020001001407CB5064600240D4649
:102C80008DF800406846FDF7F1FB01A800F028FC34
:102C900070B10570094946609DF8040048709DF8C0
:102CA0000000FDF707FC1420FCF7DCFC20467CBD8F
:102CB00004249DF80000FDF7FDFBF7E77C2C0020C5
:102CC0002DE9F041194D6C68002C2CD018480027D4
:102CD0000068A968B846401A20F07F462068B042D4
:102CE0000CD82146361A0744E469087C20B181F8E3
:102CF0001080886949698847002CEFD12978687865
:102D0000814206D1401CC0B26870022801D185F80A
:102D10000180064869780C3040F82170BDE8F04128
:102D20001420FCF79FBCBDE8F08100008026002045
:102D3000041501402DE9F041044640F20C60216881
:102D4000890001F1A041C1F800076168890001F123
:102D5000A041C1F800072068FFF7BFFA6068FFF7DD
:102D6000BCFA216840F20D60890001F1A041C1F870
:102D700000076168890001F1A041C1F80007042043
:102D8000FEF7FAFE00274FF0A04601252179D6F87C
:102D90001005C84010F0010F02D0002F1DD010E028
:102DA000217805FA01F0C6F80C050420FEF7E4FED0
:102DB0002068FFF792FA0420FEF7DEFE7F1C092F41
:102DC000E4DB20798540C6F80C550420FEF7D4FEDC
:102DD0006068BDE8F041FFF780BABDE8F08100000F
:102DE0001FB5094B0FCB8DE80F00074800231A468B
:102DF00069462038FEF7CCFF08B1FDF709FA024812
:102E00002038FEF7B5FF1FBD043602002DE9F05F44
:102E100006461F4615460C464FF0000A4FF0080BB9
:102E20004FF482795068FEF79BFF00287ED04FF068
:102E3000FF30C4F8080396F8240028B1B068C4F83D
:102E400004031120BDE8F09F780703D4F80601D4ED
:102E5000012000E0002086F8240095E8070006F134
:102E60000C0383E80700C7F3001086F82500687894
:102E7000C4F888054FF482712046FFF787FA4FF4B3
:102E800092712046FFF782FAF8074FF0010800D050
:102E90004046C4F85005B80701D5404600E0002080
:102EA000C4F84005287800286CD001287DD002287D
:102EB0004ED0032814D04FF0070A380704D42878DE
:102EC000032801D044F80B80306800286ED07807C2
:102ED00002D54FF40070B060B068C4F80403B0E0ED
:102EE000A868FEF73DFF08B34FF48070C4F80002F5
:102EF000A9786868C4F84405C4F848154FF4A87167
:102F00002046FFF743FA4FF4B0712046FFF73EFA30
:102F10004FF4A4712046FFF739FAC4F82080C4F8B2
:102F2000088000BF4FF4A871204600E028E0FFF7BA
:102F300028FA0028F6D04FF4A8712046FFF726FAA9
:102F4000E878A968C4F84415C4F848053E4815E077
:102F5000A8786968C4F84415C4F84805A868FEF75D
:102F6000FFFE68B1E878A968C4F83415C4F83805DC
:102F70004FF48450C4F8000240F20220B0609CE795
:102F800010205FE7A8786968C4F84415C4F84805BC
:102F9000B8060FD54FF48070C4F800022A48B0601C
:102FA0004FF4A4794946204601E00CE01BE0FFF70E
:102FB000EDF905E04FF40070C4F80002801CB06029
:102FC000C4F8208079E7A8786968C4F83415C4F893
:102FD00038054FF48050C4F8000240F20220B0607F
:102FE0004FF0000BECE745464FF482774FF49278B0
:102FF0000BE041462046FFF7C4F930B14146204678
:10300000FFF7C4F925626561B94649462046FFF7D6
:10301000B8F90028EDD0D4F8C404C4F8C4040021E1
:1030200086F8241068B10321C20701D04FF4024191
:10303000820701D548F20121400701D548F202215B
:103040008A465046FEE600000002040070B50C46B9
:1030500005464FF48E71FFF7A4F9A18AA068415C80
:10306000A08A401CA082C5F81C1570BD30B58FB079
:103070000024054607949DF81C001C2120F00F0039
:10308000401C20F0F00010308DF81C009DF81D0051
:1030900020F00F00401C20F0F00010308DF81D00D3
:1030A0009DF81E0020F00600801C8DF81E0068466A
:1030B000FCF70CF99DF80000019440F010008DF829
:1030C000000007A8CDE904400394069428788DF801
:1030D0003A000320ADF838000D949DF83400142117
:1030E00020F00F00401C20F0F00010308DF834006C
:1030F0009DF8350020F00F00401C20F0F00010304B
:103100008DF835009DF8360020F00600801C20F078
:10311000180040F001008DF8360008A8FCF7D6F83A
:103120000EA808900DA809900120ADF828009B205A
:10313000ADF82A40ADF82C0068882B1D08AA694616
:10314000A2DF0FB030BD1FB500228DF800208DF832
:103150000810816801918275D0E900126846904795
:103160001FBD000070B5017841B1012901D00229CD
:1031700025D14068BDE87040FDF74AB8114C104DAC
:10318000E0792844FDF7E0F8E079401CC0B2291846
:10319000E07111F8011C0A2902D0618988420ED31E
:1031A0000749E27901F52770FDF78CFC082804D067
:1031B0001128F5D008B1FDF72BF80020E07170BDA3
:1031C00098270020F82500207CB50178244D81B394
:1031D00001290BD002292BD18DF80010C068691C81
:1031E00001900122C81DFEF783FE2EE040680178A1
:1031F0001C48FDF733F81B4C012618B18DF8006010
:10320000019006E0A068E168814205D000208DF8B9
:103210000000696868468847A068E168081AA188C4
:10322000884207D80E490122491CC81DFEF760FEDE
:103230007CBD01E0AE70FBE70A4809491030FCF79D
:10324000F2FF30B103208DF80000696868468847B6
:10325000EEE70349012201F10800FEF765FFE7E709
:1032600094260020882D00202DE9FF470C460546B6
:103270004FF40071FFF79BF801274FF40178002607
:1032800018B34FF4927949462846FFF785F8E0B124
:1032900049462846FFF785F8C5F80883A07E00B99F
:1032A0006F6002208DF80000D5F88004C5F8800416
:1032B0000390E07D8DF80800E0680190E6752676C1
:1032C000D4E900126846904727E004212846FFF71A
:1032D0006EF810B34FF484712846FFF75DF8E0B143
:1032E00021462846FFF718FAE07D617E884214D116
:1032F000207E38B1617EE268E0752069E060267664
:10330000667607E0A07E00B96F60C5F80883E675B1
:10331000617EE2682046FFF769FA4FF48E784146F5
:103320002846FFF739F888B1A08AA17D884204D2E7
:1033300021462846FFF78AFE08E041462846FFF767
:1033400030F8A17D11B12046FFF7FDFE4FF4A278C1
:1033500041462846FFF720F8002812D0414628466B
:10336000FFF71FF8A07E00B12F60E07D002808D095
:10337000E675617EE26804B02046BDE8F047FFF7DD
:1033800035BABDE8FF872DE9FF410C464FF492772F
:1033900005463946FFF711F80026C0B139462846E0
:1033A000FFF710F802208DF80000D5F88004C5F86A
:1033B00080040390D5F83C058DF80800E068019082
:1033C000E6752676D4E900126846904724E04FF46B
:1033D000887739462846FEF7F0FFE8B13946284697
:1033E000FEF7F0FFD5F83C05C1B2E07D884213D16D
:1033F000207E60B1E268D5F8000220F02000C5F818
:103400000002207EE0752069E060267601E0E67526
:10341000E2682046FFF7EAF94FF4A27739462846DA
:10342000FEF7CBFF68B139462846FEF7CBFFE07DBB
:1034300038B1E675D5F83C05E268C1B22046FFF721
:10344000D5F94FF4907631462846FEF7B6FF0028AE
:103450000FD031462846FEF7B5FFA07D002808D0E2
:10346000D5F84C0504B0C1B22046BDE8F041FFF7E5
:103470006ABEBDE8FF810870000A487002207047EC
:1034800038B515494888A0F57F42FF3A23D04A78DD
:10349000124C521CD2B24A70237B93420AD3091DAC
:1034A00075DF002817D0A169002914D001B0BDE84C
:1034B0003040084700254D70217C29B13B2176DF43
:1034C00010B1A16901B188476169002903D08DF865
:1034D00000506846884738BD6C260020AC2B002081
:1034E0000A494A788B78521CD2B2934200D100220A
:1034F0000B78934201D1002070470270487800EBAE
:10350000400001EBC000001D704700007C2C002033
:103510002DE9FC411646DDE90854CDE900541F466B
:103520008046022200F00CF8002807D1CDE90054B3
:103530003B4610223146404600F002F8BDE8FC81CF
:103540002DE9FC5F0026DDE90C4B994692468E463C
:1035500080462788354630E0D8F80400002200EB8A
:10356000850069460068019001A864DF002830D119
:103570009DF8000050451FD10EB1002100E002214E
:10358000228808441118594522D846B9521C90B2D5
:10359000208009F800E02088401C20800126218836
:1035A00001A801EB0902694664DF002811D12088D7
:1035B0009DF80010084420806D1CB8F80000A84257
:1035C000CADC56B12088C01B401E80B2FF2802D939
:1035D0000C20BDE8FC9F09F807000020F9E7000077
:1035E000010000070030004000010000080000005A
:1035F00006000000050000000700000000000000B9
:1036000000E0D7011B0000001A0000000000980134
:1036100002000000111213140D0E0F106C2A00206E
:103620008C2A0020B82A00200D0003006D0D020036
:103630000E0003006D0D02000F0003006D0D02006F
:10364000100003006D0D02008C2B0020770A000093
:1036500000000000770A0000000000007ADA000095
:10366000000000009ECADC240EE5A9E093F3A3B598
:103670000000406E0000005001000000000000004B
:1036800000000000FFFFFFFFFFFFFFFFFFFFFFFF46
:10369000FFFFFFFF00000000000000000000D60157
:1036A000070100006E72665F626C655F676174742B
:1036B0003A4552524F523A73645F626C655F67617C
:1036C0007474635F65786368616E67655F6D747558
:1036D0005F726571756573742829207265747572DF
:1036E0006E656420756E65787065637465642076B8
:1036F000616C756520307825782E0D0A0000000079
:103700006E72665F626C655F676174743A455252AF
:103710004F523A73645F626C655F67617474735F84
:1037200065786368616E67655F6D74755F726570FB
:103730006C7928292072657475726E656420756EC7
:1037400065787065637465642076616C756520309A
:103750007825782E0D0A00006E72665F626C655FD8
:10376000676174743A4552524F523A73645F626CA7
:10377000655F6761705F646174615F6C656E6774DB
:10378000685F757064617465282920287265706CA3
:1037900079292072657475726E656420756E65781E
:1037A0007065637465642076616C7565203078257A
:1037B000782E0D0A000000006E72665F626C655F15
:1037C000676174743A4552524F523A73645F626C47
:1037D000655F6761705F646174615F6C656E67747B
:1037E000685F757064617465282920287265717539
:1037F00065737429206F6E20636F6E6E65637469E4
:103800006F6E20307825782072657475726E6564ED
:1038100020756E65787065637465642076616C757B
:103820006520307825782E0D0A0000004C38020003
:10383000F8250020C800000088FA010014390200B1
:10384000C02600207827000098FA01000000000040
:1038500000A1E300FFFF1400888990919899E1E2AC
:10386000E4E5E5E6010002000000000042415345A6
:1038700042415345DEADBEEF0000000000000000F5
:103880000000000000000000000000000000000038
:103890000000000000000000000000000000000028
:1038A0000000000000000000000000000000000018
:1038B0000000000000000000000000000000000008
:1038C00000000000000000000000000000000000F8
:1038D00000000000000000000000000000000000E8
:1038E00000000000000000000000000000000000D8
:1038F0000020004000000000000000000000000068
:1039000000000000000000000000000000000000B7
:043910000090D00350
:040000050001F20103
:00000001FF
